:020000022000DC
:10600000F8720020F1A9020057700400C5A902002F
:10601000C5A90200C5A90200C5A902000000000030
:1060200000000000000000000000000015AB0200AE
:10603000C5A902000000000081AA0200C5A9020053
:1060400035AD020019C1030035AD020035AD0200C7
:1060500035AD020035AD020035AD020035AD0200B0
:1060600035AD020035AD020035AD020035AD0200A0
:1060700035AD020035AD020035AD020035AD020090
:1060800035AD020035AD020035AD020035AD020080
:1060900035AD020035AD020035AD020035AD020070
:1060A00035AD020035AD020035AD020035AD020060
:1060B00035AD020035AD020035AD020035AD020050
:1060C00035AD020035AD020035AD020035AD020040
:1060D00035AD020035AD020035AD020035AD020030
:1060E00035AD020035AD020035AD020035AD020020
:1060F00035AD020035AD020035AD020035AD020010
:1061000053B94AB9002908BF00281CBF4FF0FF311E
:106110004FF0FF3000F00CB8ADF1080C6DE904CE83
:1061200000F008F8DDF804E0DDE9022304B0704770
:10613000704700BF2DE9F04786468C460846089E0A
:10614000154674461946002B40F0C2808542B2FACB
:1061500082F245D94AB1C2F1200300FA02FC2EFABC
:1061600003F3954043EA0C0C94404FEA154EA8B255
:10617000BCFBFEF8230C0EFB18CC08FB00F943EA2D
:106180000C43994528D9EB1808F1FF3704D29945FB
:1061900002D9A8F102072B44A3EB0903A4B2B3FB75
:1061A000FEFC0EFB1C330CFB00F044EA0344A0424F
:1061B00014D92C190CF1FF3304D2A04202D9ACF14E
:1061C00002032C44241A43EA07401EB1D4400023A2
:1061D00034607360BDE8F0874746DDE76346F1E76A
:1061E00092BB431B01214FEA154EAFB2B3FBFEFC3D
:1061F000200C0EFB1C330CFB07F840EA03439845C8
:1062000062D9EB180CF1FF3004D2984502D9ACF1F9
:1062100002002B44A3EB0803A4B2B3FBFEFC0EFB6D
:106220001C330CFB07F744EA0344A7424ED92C1950
:106230000CF1FF3304D2A74202D9ACF102032C4483
:10624000E41B43EA0040C0E7C2F1200320FA03F157
:10625000954090402EFA03F303434FEA154EAFB238
:10626000B1FBFEFC0EFB1C10190C0CFB07F841EAFD
:106270000041884504FA02F422D969180CF1FF3074
:1062800004D2884502D9ACF102002944A1EB0801EF
:106290009BB2B1FBFEFC0EFB1C110CFB07F743EAA3
:1062A00001439F420ED9EB180CF1FF3104D29F42FB
:1062B00002D9ACF102012B44DB1B41EA004192E719
:1062C0006046E3E76146F7E76046A3E76346B7E762
:1062D000834206D916B9002108467BE7C6E900E0EB
:1062E000F9E7B3FA83F78FB9834201D3724508D82F
:1062F000BEEB020460EB030301209C461EB90021A3
:1063000068E73846FAE7C6E9004CF8E7C7F1200C21
:10631000BB4022FA0CF41C432EFA0CF120FA0CF3C9
:10632000B84001434FEA14490EFA07F5B3FBF9F8F8
:106330001FFA84FE09FB18300B0C08FB0EFA43EA27
:1063400000439A4502FA07F240D9E31808F1FF30FA
:1063500004D29A4502D9A8F102002344A3EB0A0310
:1063600089B2B3FBF9F809FB183308FB0EFE41EACA
:1063700003418E452CD9611808F1FF3304D28E45B4
:1063800002D9A8F10203214443EA0040A0FB02988D
:10639000A1EB0E014145CE46434602D306D14D4501
:1063A00004D2B9EB020E68EB04030138002EA6D02C
:1063B000B5EB0E0261EB030101FA0CFC22FA07F3C4
:1063C0004CEA0303F940C6E9003198E74046C5E7C7
:1063D0004346D9E710F8012B11F8013B012A28BFE9
:1063E0009A42F7D0D01A7047034611F8012B03F8F0
:1063F000012B002AF9D17047034613F8012B002A1C
:10640000FBD1181A01387047F7B53E4DD5F85C310D
:10641000996811F0010121D101AA40F6034005F06D
:1064200071FB044600286AD10198C3681B789BB9A8
:10643000BFF35B8FD5F8D430BFF35B8F05F1D40287
:1064400003F00903BFF35B8F52E8001F42E80034FA
:10645000002CF9D1BFF35B8F18F070FD01AA002169
:1064600041F2030005F04EFB0446002847D1019B92
:10647000254EDA68D2F80100D2F8051003C6184696
:1064800018F05CFD214601AA41F2010005F03AFB3B
:106490000446A0BB0198C3685A7885F870205A88D2
:1064A000A5F872201A7985F87120B3F80720A5F8AD
:1064B0007420B3F80530A5F8763018F03FFD21467A
:1064C00001AA41F2020005F01DFB0446B8B9019F84
:1064D000FA68531C413218685968344603C40833BB
:1064E00093422646F7D1094820F074FE384618F04A
:1064F00025FD95F87C305B060AD46FF01204204627
:1065000003B0F0BD000000207800002080000020D3
:1065100001AA002142F2030005F0F4FA0446002823
:10652000EDD1019BB64EDA68D2F80100D2F8051021
:1065300003C6184618F002FD214601AA42F20200E5
:1065400005F0E0FA04460028D9D1019CE368B3F8CD
:10655000012091B249B1D97839B1A5F80421DA788E
:10656000114606F1280024F04BFE204618F0E6FC08
:1065700095F87C6016F0200618D1022140F66D4097
:1065800005F064FA0446002800F0CC8002210C30AB
:1065900023F002FF0123037046702146324640F685
:1065A0006D4005F0AFFA04460028A8D195F89C305C
:1065B0001F0712D501AA002142F21C0005F0A2FA21
:1065C000044600289BD10198C368D3F80120D3F872
:1065D0000530C5E9382318F0B1FC95F8D8309E068F
:1065E00024D50DF10201684621F0B7F804460028D1
:1065F00085D1042142F2240005F028FA064600283D
:1066000000F0908004210C3023F0C6FEBDF800306D
:106610000380BDF8023043802246314642F2240016
:1066200005F070FA044600287FF469AF95F8D83079
:106630005C0610D501AA002142F22A0005F062FA98
:10664000044600287FF45BAF0198C3685B7885F847
:10665000203118F073FC082142F2010005F0F6F930
:10666000044600285ED008210C3023F095FE95F8F2
:10667000D81011F0400F024640F2022308BF032356
:1066800088074CBF43F02C0043F00C0095F8D9303C
:106690008F0648BF40F0400013F0090F95F8A23074
:1066A00018BF40F4006003F00603CE0748BF40F077
:1066B0001000062B08BF40F4C070002120F019FF25
:1066C0002146002242F2010005F01CFA044600288F
:1066D0007FF415AF95F87C30B5F80411980624D4F2
:1066E000C9B901AA41F2050005F00CFA04460028D8
:1066F0007FF405AFB5F80431019C4BB9E368B3F8FA
:106700000120A5F804219A883E48114624F078FD1E
:10671000204618F013FC082140F6014005F096F9D8
:10672000044638B96FF06804E9E60029F3D16FF048
:106730000404E4E608210C3023F02EFE95F8D8304E
:10674000D907024653BF4FF000512BA1D1E90001F8
:106750002D4820F0CEFE2146002240F6014005F0F3
:10676000D1F9044600287FF4CAAE014601AA4FF6CB
:10677000014005F0C7F9044620BB019818F0DEFB84
:10678000214601AA4FF6024005F0BCF90446C8B9FB
:106790000198C368B3F80130A5F8C13018F0CEFBFA
:1067A00095F8C1305B070DD501AA21464FF603408D
:1067B00005F0A8F930B90198C3685B7885F8C03056
:1067C00018F0BCFB21F03DFA044600287FF497AE98
:1067D00007F004F9044600287FF491AEEB79002B12
:1067E0003FF48DAE0821094820F0C6FD05F03EFCBF
:1067F00085E600BFAFF30080908800020080002093
:10680000D80000200801002010880002D4000020D9
:106810002DE9F843D0E90C35D0F82C805C193034E0
:10682000A0450F46164619D81D4DA3FB05011AA316
:10683000D3E90023FFF764FC0346A4EB0800A0FBA8
:10684000050123F07F4414A3D3E90023FFF758FC8C
:1068500020F07F403C603060BDE8F883DFF8409076
:106860000DA3D3E90023A8FB0901FFF749FC044667
:1068700005F1300008A3D3E90023A0FB0901FFF7CD
:106880003FFC24F07F4420F07F403C603060BDE856
:10689000F88300BFAFF300808D49FD1A07000000A8
:1068A00000CA9A3B000000009FED097B0E4B0F4A87
:1068B0000F4983ED007B9FED087B82ED007B9FED10
:1068C000087B0C4B002281ED007B1A600DF0D6B8DE
:1068D000FFFFFFFFFF1F000000000000000000009E
:1068E0001F00000000000000800100207817002039
:1068F00078010020B42B0020002800F046812DE90B
:10690000F04FC94C94F86A2012F001058DB040F0A8
:10691000788194F82500FF2300F0030084F82630E6
:1069200014F0E4FF94F86A00420727D494F8292071
:1069300094F8353004EB820204EB8303D66AD3F873
:10694000388086B1B84831460EF04CFE33785B068D
:1069500005D506210AF01EF9002800F05481B2483E
:1069600041460EF03FFE337813F00E0F40F09E804C
:10697000236A93B10C200DB0BDE8F08F2A4604F1D4
:106980006B01C0F3C00015F021F9FF2884F8260040
:10699000CCD0284614F0C4FFC8E70CF0B9F9814602
:1069A000002800F054810CF0BFF98246002800F066
:1069B0004B810FF005F90546002800F04A81D0F818
:1069C00088004FF6FF732B8505F11C0B002800F0A3
:1069D000208105F17C0205F178010AF0E7F8B5F8AD
:1069E000763023F4EF6323F0070343F4887343F016
:1069F0000103A5F8763095F8393003F03F0363F0D2
:106A00007F0385F8393095F88E3023F0070385F839
:106A10008E3095F83C3023F00703002785F83C3092
:106A20004FF4C023C5F888312846C5E91277C5F868
:106A30008870A5F88C706F86C5F82E7085F83B704D
:106A40002F65A5F88E71A5F8847111F02BFA85F8E1
:106A50005071C5F854910FF03FFB95F8943160F3F5
:106A6000020385F894310FF03DFB95F8943160F303
:106A7000C50385F8943195F8803167F3410385F8B3
:106A80008031012128460FF049FF05F1D40010F0B4
:106A9000C3FFC4E9189AC4F820B0C5E905772F7080
:106AA000ED6116F0D9F8002840F0AF8094F824305A
:106AB0000121C3F342030DF12B008DF82B300AF0B6
:106AC00013FA0246002862D098F8011030460EF002
:106AD0004BFB31235549A360554BB4F86870A0FBBC
:106AE00001010025C01841F107014DA3D3E900239E
:106AF000C4E9055525706560E560FFF701FB20617D
:106B00000BF004FC00F109083FB9357805F00F05DA
:106B1000A5F10105B5FA85F56D0994F824002369FE
:106B200065F3000010F0010584F8240036D0414AD6
:106B300009920020106002253F4A404F04930BAE9B
:106B4000019305920321CDE902000694434600908B
:106B5000089607972A460B950BF0DAFA31460CF0A7
:106B60009DF9A0B9364905914AF2D8330093CDE991
:106B70000300CDE9010007970896069443460122D9
:106B800003210B950BF0A8FA2EE00EF03DBA236A14
:106B9000002B3FF4EFAE0EF0F5F9EBE6254A29485D
:106BA000049303F247130694029591211360A7FB07
:106BB000000301FB0731214B07931F4B05934FF651
:106BC000FF730992022703930BAE15A3D3E90023A9
:106BD0000B970896FFF794FA4346CDE900503A46E2
:106BE000284603210BF094FA31460CF057F900289F
:106BF000CDD194F86A300120034384F86A3014F050
:106C000057FE0020B7E61220B5E60EF0BBF90320D0
:106C1000B1E605F18000C5F88800DAE6AFF3008040
:106C20008D49FD1A07000000EC2B002000CA9A3B9A
:106C30008C49FD1AE02B0020E5510300612403007C
:106C4000014D0300002AE78448460CF067F807204E
:106C500091E650460CF06EF848460CF05FF8F6E707
:106C600070B590F824308AB0C3F342030D46044651
:106C700001210DF1230016468DF823300AF034F976
:106C80007178024628460EF06FFA1F491F4AA0FB92
:106C90000131981841F1070119A3D3E90023FFF747
:106CA0002FFA23699842054621D21B1A002201922D
:106CB000174A0293174BA21AA3FB02320221920930
:106CC00000230A4409AE099113490591CDE9033324
:106CD0000321D2B20696009318460BF079FA31469A
:106CE0000CF0DCF838B9256100200AB070BDFBD982
:106CF000C21A0023DBE70C200AB070BDAFF300809E
:106D00008D49FD1A0700000000CA9A3B8C49FD1A04
:106D1000EC2B002009CB3D8D612403000000000016
:106D20002DE9F04F05468BB08B46012002219A4693
:106D3000144617F07BFE002202218146012009F053
:106D400085FF39494FF4D072284609F00FFFC61C61
:106D5000F6B2364B00953246012100200BF050FA76
:106D600010F0FD0F0CD0324A3249334840F62F0361
:106D70001EF004FC404080F311884FF0030002DF56
:106D80002E4BA4FB0348204625A3D3E9002341460C
:106D9000FFF7B6F9089506952B690493284B20F068
:106DA0007F47A7FB0331E01A264B07934FF00702FA
:106DB000254B059302FB07114FF6FE7368EB0101AB
:106DC00003934FF47A720023FFF79AF9CDF800B0DD
:106DD000CDE9017053463246012100200BF07CF9C9
:106DE00010F0FD0F0CD0124A1249134840F644032C
:106DF0001EF0C4FB404080F311884FF0030002DF17
:106E0000B9F1000F02D10BB0BDE8F08F01220221D1
:106E100010460BB0BDE8F04F09F018BFAFF300808B
:106E20008D49FD1A0700000080170020695B0300F0
:106E300070D1040034D20400A8CC040000CA9A3BEC
:106E40008D49FD1A115B030019AE0300000000001C
:106E50002DE9F043C469228D4FF6FF739A428DB03D
:106E600000F088800546204611F09EFA95F82830FB
:106E7000012B00F00F81022B00F00281002B00F0AB
:106E8000E18094F85071002F40F0FD80E68DB4F859
:106E90003080002E71D1AA8C08F101060023CDE9C3
:106EA0000A33B6B2002A70D094F93930002BC0F200
:106EB00048810023A4F88A3195F82630D90740F19B
:106EC000EF800023A4F88E310DF1270231462046D1
:106ED00011F024F8743000F04681B4F888312BB1F9
:106EE000B34240F20D819B1BA4F88831B4F8843181
:106EF0002BB1B34240F2FB809B1BA4F88431258E5A
:106F000017B9A84500F0EA800135ADB294F8D13048
:106F100013F001065AD1DDE90A130A46002B40F0AE
:106F2000ED80002900F0DC801E461846228DE469C1
:106F30000694CDE903570332A74D0290CDE9001620
:106F4000D2B20121002005950BF042F910F0FD0F9F
:106F500010D00BF0CDFF84420CD0A04AA049A1482C
:106F600040F215531EF00AFB404080F311884FF0A9
:106F7000030002DF0DB0BDE8F083AA8C4644002375
:106F8000CDE90A33B6B2002A8ED195F82630DA0759
:106F900097D4B4F88A31002B00F08280B34240F2DB
:106FA000FA809B1BA4F88A31B4F88E31002B8BD069
:106FB0009E4280F0DE809B1B9BB20022062BA4F831
:106FC0008E31228600F2AC8001277DE794F93920CA
:106FD0006FF30003002A84F8D13077DB94F8760051
:106FE000C0F3C00100F0070015F09CFCB4F86E205F
:106FF000B4F86C30134403F2D51303447A4A7B4847
:107000000721E3FB0021104671A3D3E90023FFF71A
:1070100077F8DDE90A1320F07F422069226190426F
:1070200035BF161A801A002000260A46002B7FF46E
:107030007DAF56EA010C7FF479AF002850D0194695
:107040001E4673E794F88E3003F01803182B7FF474
:1070500018AFA18DB4F886218B1D9A42C4BF931F2F
:107060005B1AB4F88211CCBF9BB21346994200F070
:107070008C80A4F88231A4F88431A4F8882100E738
:107080003D2784F85071394620460DB0BDE8F043E5
:107090000FF004B90023A4F88831A4F88431F0E695
:1070A000B4F88E31002B83D1628DB4F88C3140F26C
:1070B000E24101FB02F242F2107101FB0323013BAA
:1070C000B3FBF2F39BB2A4F88E316FE794F877002C
:1070D000012100F0070015F027FC87E73D4615E782
:1070E000002D4BD000261146304633461EE70023C4
:1070F000A4F88431204610F0B1FF00E7304615E7D0
:107100000BF05EFE014600283BD00023A4F8883136
:10711000238DC3801B23037100680BF01BFEE5E683
:1071200094F939309342BFF6CFAEB8F1000F7FF437
:107130004BAFD4F878315A08DB0743D4C4F8782130
:10714000C2E628460AAA0BA904F1D409FFF760FB9E
:10715000484610F0A3FC18B3484610F09FFC18B343
:1071600000232386A5E69DF8271020460FF096F809
:1071700000E7082120460FF091F8FBE6002FB1D17F
:10718000F8E60123A4F88831B0E6B4F888110029A4
:107190007FF477AE6FE73E2120460FF07FF8E9E6F7
:1071A000FF200FF03BF8D7E70246D4E91E0109F0B3
:1071B00015FD0028D4D194F83C30580744BFA38D66
:1071C000238676E642F00042C4F87821FCE600BF50
:1071D0008D49FD1A07000000D15A030070D1040048
:1071E00098D20400A8CC04008C49FD1A00CA9A3B2E
:1071F0002DE9F04F87B0CDE90423BDF84420037892
:107200000292BDF84820BDF84080BDF84C50468E33
:10721000B0F82E90B0F814B1019104460392002BFF
:1072200000F08E80013EB6B2A368D4F80C71721BD8
:1072300092B2002B009209DAE168626823F0004301
:1072400091422CBF7F18BF18A360FF1A009A638D6C
:1072500013FB02F39BB2B3FBF8F218FB02F080B20F
:1072600083421FFA82FA5AD2C01A40F2E2425E49C1
:1072700002FB00F0A0FB010159A3D3E90023FEF7B4
:107280003FFF20F07F400744D94494F839304D4403
:10729000AD1B554440F2E246DB09E58506FB08F5E7
:1072A00052D1524A5249534840F6BA031EF066F989
:1072B000404080F311884FF0030002DF0026A9460A
:1072C000029BA385039BA4F88C3129462046A4F891
:1072D0002A8010F05FFE484BA18D2B44881DB3FB24
:1072E000F5F39AB29042A4F8862102D2521A063AD5
:1072F00092B2019BA4F8822113B10023A4F88E312D
:107300003B464A4631462046FFF70AFD94F8803155
:1073100043F0010384F8803107B0BDE8F08F08FB2B
:107320001231314840F2E24389B203FB01F1A1FB83
:1073300000012BA3D3E90023FEF7E2FE3F1AA3E7E7
:107340004E445E44B6B26FE7226C0099A36CDFF83E
:1073500098B002FB1133A36415F0CEFC814694F87B
:107360007401C0F3420015F0C9FC049B814406FB84
:1073700003F305FB09F9236509F574291F4B09F28D
:107380003F29A3FB09394FEA994303FB0AF0236421
:10739000A5EB0309A36C6A080344963A934228BFFD
:1073A0001346C4E911230023C4F87C31A0FB0B0170
:1073B0000BA3D3E90023FEF7A3FE114B059A3F1A56
:1073C000A3FB0230800A06FB00F005A3D3E90023EB
:1073D000A0FB0B01FEF794FE20F07F4670E700BF94
:1073E0008D49FD1A0700000000CA9A3B70D10400C5
:1073F00028CD0400A8CC04007FC3C90183DE1B4351
:107400005917B7D1000000002DE9F04F0B6891F833
:107410001180D3F80090037F176895B00446C3F33A
:107420008013D0F81E008DF83F30B8F1FF0F638C49
:1074300012900E461546ADF84C300DF1480A49D170
:107440009AE803001090ADF844102346E28D53F8FB
:107450002EBB9B78AB722A81D4F82A306B60D4F8AB
:107460003A30AB6105F1180094F83E300371052104
:1074700009F03AFD6B7F00F03F0060F305036B7786
:1074800094F83F30C3F30402AA77A28EEA81012860
:1074900003F01F0392B205D91B3303F01F030B2B1C
:1074A00000D81ABB0022C9F8142095F8203062F3E6
:1074B000000385F82030E5680126584621462671EC
:1074C0000BF03EFC28682E7129460BF043FC15B0EA
:1074D000BDE8F08F10AA0DF13F01404613F094FF74
:1074E0009DF83F3002338DF83F30AEE7336800211E
:1074F0005960E38EEA892B8240F2E24303FB02F2F9
:107500000B92628E0D92384610F058FD94F83F2091
:1075100097F87411520962F3430187F8741115F05A
:10752000EBFB0C9097F87401C0F3420015F0E6FBFA
:107530000C9A0B99104401FB00F0B94A00F5742035
:1075400000F23F20A2FB00204A08800C963A6862B5
:10755000AA6294F8312040F2E24302FB03F3AB63EA
:10756000238FA7F88C31384610F014FD0B99AD4BE2
:10757000AD4AC7F890210B44B3FBF1F39AB2A7F8D8
:107580008621298A881D824204DDC1F57F41FA31B6
:107590000A4492B2A7F882216B68C7F87831234673
:1075A00013F81C2FC2F340120C92DA0700F113817A
:1075B0004FF48073A38399F8260014F01BFC04F1A8
:1075C0002B03002800F0EB80626AC4F82B20228D88
:1075D0009A80B8F1FF0F00F0E680BAF804301298F4
:1075E000A4F82930C4F825009DF83F30A3771098FF
:1075F000BDF84430C4F81F00A4F82330EB8963863B
:107600002B8AA386B7F88C31E38697F87431C3F3DD
:10761000420384F8383038460EF0DEFAA881E08064
:107620002146584674680BF08BFBAB89E3801C2322
:1076300023710C9BD4F80080002B40F0BA800C9B87
:107640002377214640460BF085FB95F85B00B5F8A3
:107650005080B5F85240012100F0070015F064F9A0
:10766000444404F2D514DFF8CC81044482466F48C8
:107670000721E4FB080131230024BB607C6066A382
:10768000D3E90023FC60FEF73BFD20F07F4038612A
:107690000B9B6D6A0D995D1BF36840F2E24202FBA1
:1076A000013303F2B241A1EB0A0A22460221012072
:1076B00009F0CCFA48460DF051FF0246AAFB08013A
:1076C000924655A3D3E90023FEF71AFDCDF80490A6
:1076D000B3685749009120F07F480AF102023A3B13
:1076E000D2B22046434401210AF0CCFD01287FD0CC
:1076F00099F82430DB0766D438460EF06DFA4D4B0E
:10770000A5FB03A9044644A3D3E9002350464946F8
:10771000FEF7F6FC484BB668484A079220F07F45D2
:10772000A5FB0331BAEB0300454B059340F2D1139F
:10773000069708933B694FF0000BCDE903B34FF078
:10774000070303FB051169EB01014FF47A72002373
:10775000FEF7D6FC03343A3EE4B2CDE90150CDF851
:10776000008033462246012158460AF0B5FC10F04D
:10777000FD0F0CD0334A344934484FF4E9731DF0FF
:10778000FDFE404080F311884FF0030002DF01222C
:107790000221104609F05AFA15B0BDE8F08FC4F87E
:1077A0002B00988015E70022C4F82520A4F8292092
:1077B0001AE76B7F43F040036B77281D13F02EFC14
:1077C0000123E8833CE70023012200931846114679
:1077D0000AF016FD90E71B4A1D491C48F8231DF0CE
:1077E000CDFE404080F311884FF0030002DFDFE65A
:1077F0000BF07EFB81453FF47BAF124A15491348DD
:1078000040F279231DF0BAFE404080F311884FF01A
:10781000030002DF6CE700BF8D49FD1A070000007E
:1078200083DE1B437FC3C901404B4C008C49FD1ACA
:10783000DDAD030000CA9A3B8D49FD1AADAD0300D2
:1078400019AE030020D7040034D20400A8CC0400F1
:1078500044CF04007CD7040010B5334C33490023D7
:1078600004F1FF3C14F83320072A02EB820E05D8FE
:1078700011F83E206FF3451201F83E201CF833202A
:107880006FF300020CF833200133082BEAD1284AA9
:10789000284C002313700A7863F300020A7091F8F1
:1078A000282063F3000281F8282091F8502063F328
:1078B000000281F8502091F8782063F3000281F8EB
:1078C000782091F8A02063F3000281F8A02091F8BD
:1078D000C82063F3000281F8C82091F8F02063F318
:1078E000000281F8F02091F8182163F3000281F87A
:1078F0001821114A9FED0A7B1370104B83ED007B1A
:107900000F4B236028B1BDE810400E490E4823F00C
:107910003EBDBDE810400C4823F047BDAFF30080EA
:10792000FFFFFFFFFFFFFFFF9532002054310020D3
:107930009144002064300020904400205019002021
:10794000A0BB0D000DBB03002019002000000000AB
:107950002DE9F04F8FB00DF137010446DFF8E0A0BC
:10796000DFF8E0800DF136000BF072FA9DF836304A
:107970009DF837B00B930AF0C9FCDAF80060A6FB5B
:10798000085629A3D3E9002300278146314628461B
:10799000FEF7B6FBCDE90777069420F07F44DAF8CE
:1079A0000400234B0593A0FB08011FA3D3E9002388
:1079B000FEF7A6FB1F4B20F07F40A4FB03310722FC
:1079C00002FB0411CDE90370E81A66EB01014FF4E4
:1079D0007A720023FEF794FB0097CDE901404B46F5
:1079E0000B985A4603210AF077FB10F0FD0404D0EF
:1079F0006FF08B000FB0BDE8F08F0F480F4A0023E7
:107A00001BF030FE20B9DAF80C000FB0BDE8F08FA3
:107A10009DF837209DF836000094234603210AF094
:107A2000EFFB6FF07300E5E78D49FD1A07000000DA
:107A3000A1C003008D49FD1A08330020447B0B00D0
:107A40002033002000CA9A3B38B50F4D04460AF097
:107A50005DFCA9680AF05CFC696803460B48B3FB4F
:107A6000F4F4A1FB00011C4405A3D3E90023FEF7B5
:107A700047FB20F07F40844294BF0020012038BDA6
:107A80008D49FD1A070000002033002000CA9A3BF0
:107A9000F0B5C468636883B00546002B63D116F067
:107AA00051FB002016F074FB0021084616F062FB23
:107AB00000222521082016F0A1FB454B019301A8C7
:107AC00016F084FB434940F25B6016F029FC237AF0
:107AD000C3F3420262F306132046237215F02CFB17
:107AE00014F05CFA58BB637A9B071FD127682E6895
:107AF000384614F0B5FE06446A6806F10901012013
:107B000016F056FD16F014FE20460DF033FD811CD4
:107B10003246C9B2384614F0B1FE054670BB204665
:107B200014F046FE88B9002003B0F0BD012013F028
:107B3000B3FE4178821C007816F0DAFCD6E7607A52
:107B400010F0030018BF0120F1E7234A234924481D
:107B500040F22C431DF012FD404080F311884FF09D
:107B6000030002DFDFE793F820309A0797D01D4823
:107B7000214616F0A5FA16F08DFBD4E7164A1A49ED
:107B8000174840F214431DF0F9FC184B0721A5FBE0
:107B9000030301FB05310CA3D3E90023FEF7B0FA80
:107BA0001349024613481DF0E9FC404080F3118858
:107BB0004FF0030002DF1048214616F081FA16F05C
:107BC00069FB6FF08B00AFE700CA9A3B0000000032
:107BD000D6BE898E5555550050DB040014CE0400E6
:107BE000A8CC040005CA030028CD04008D49FD1A65
:107BF00000DC0400D4DB040009CD03000000000019
:107C00002DE9F041C468A2894FF6FF739A4282B011
:107C100000F0C780054615F0B7FD2B89628AE08A1F
:107C20001A4492B21044637FA28280B2411CE18266
:107C30005E064FF00001618204F1180100F18C80B2
:107C400003F03F000B46A17F009004F11F0013F0EA
:107C50009DF90646D4E90B231344D4E90D02002113
:107C60000244E1626163A16AA26394F872208B42CC
:107C700028BF0B4612F00402236377D016F062FA95
:107C8000002016F085FA201D16F0A0FA2389A17AAB
:107C900040F25B6043EA014116F042FB304614F0CB
:107CA000FFFD2146584816F00BFA962016F074FC9A
:107CB00094F85A2094F85B00C2F3C003002102F04C
:107CC000070200F0070016F091FB204615F0BEFDFC
:107CD00027682E68384614F0C3FD06446A6806F12A
:107CE0000901002016F064FC804616F0F5FC002027
:107CF00016F00CFD236B94F85B0003F13002A36BCC
:107D000000F00700012103EB420516F0B5FA4544E7
:107D1000054494F85B0000F00700022824D00428F2
:107D20000CBF4FF4BC73282301211D4416F0A6FAA2
:107D3000284416F0C3FCA18903313246C9B2384643
:107D400014F09CFD054698BB204614F031FDD0B9D7
:107D5000002002B0BDE8F0810A4603F03F03E18B4A
:107D600013F060F9064675E71823DDE7D4E917013B
:107D700008F034FF002881D194F8723043F00403F6
:107D800084F872307AE7214A2149224840F255139B
:107D90001DF0F4FB404080F311884FF0030002DF38
:107DA000D6E71D48214616F08BF916F073FACFE797
:107DB000164A1A49174840F24B131DF0DFFB184BC7
:107DC0000721A5FB030301FB05310DA3D3E9002324
:107DD000FEF796F91349024613481DF0CFFB4040C9
:107DE00080F311884FF0030002DF1048214616F09F
:107DF00067F916F04FFA6FF08B00AAE7AFF3008037
:107E000000CA9A3B00000000A5DA030078DC0400F9
:107E100014CE0400A8CC040005CA030028CD040039
:107E20008D49FD1ACCDC0400D4DB0400E1C9030059
:107E30002DE9F0472DED028B9FED498B4A4E84B022
:107E400004464FF02003EFF3118783F31288BFF34A
:107E50006F8FD4F8C8508DB9022104F1E00023F0EF
:107E6000DFF9002843D100238DED008B029304F14C
:107E7000D00239463D481CF0D3F8E2E7D4F8CC20D4
:107E80002B68C4F8C830954208BFC4F8CC30D4F889
:107E9000E03043F00203C4F8E030EB6823F0040361
:107EA00043F00103EB606B6887F31188BFF36F8FBA
:107EB000284698474FF02003EFF3118983F3128887
:107EC000BFF36F8FEB68990723F0010219D4EA60C2
:107ED000D4F8E03023F00203C4F8E03089F31188CD
:107EE000BFF36F8FDB05ACD41BF07AFFA9E704F179
:107EF000D80500220121284623F098FB0028F8D15C
:107F0000B1E7306823F00303EB600028E0D00027DE
:107F1000D0F80080BA460028DAD04268954201467F
:107F20000BD1016897B972683160824200D17160EB
:107F300040F808AB1BF070FB3946B8F1000F0BD0CE
:107F4000D8F8002040460F469046E4E73960726852
:107F5000824208BF7760EBE74246F3E7AFF3008069
:107F6000FFFFFFFFFFFFFFFF30430020A74400207B
:107F700001481BF053BC00BF9802002001481BF0D1
:107F80004DBC00BF8802002007B523F08CFB4FF4E6
:107F90007A72A0FB020302FB0131C00B074A40EAE0
:107FA0004140106000234FF400420548CDE9002312
:107FB0001CF014FA002003B05DF804FBC01D002083
:107FC000A80B0020014B187800F042BAA84300200B
:107FD000044B1A78824202D01870FFF7F3BF0020DA
:107FE000704700BFA843002008B523F05CFB4FF4A6
:107FF0007A72A0FB020302FB0131084AC30B12682C
:1080000043EA41439B1A47F23052934204DDBDE8F4
:1080100008400120FFF7DCBF08BD00BFC01D0020E5
:1080200008B523F040FB4FF47A72A0FB020302FB79
:108030000131C00B044A40EA41401060BDE80840ED
:108040000020FFF7C5BF00BFC01D0020014B1878FE
:10805000704700BFA8430020F8B5044610B90025BA
:108060002846F8BD0378002BF9D00F4E0F4FBE42C3
:108070000FD30D4EBE42F2D2306822F024FF30B151
:10808000356821462868FEF7A5F90028E8D00436AF
:10809000F0E7306822F017FF18B135682B68A3426B
:1080A000DED00436E3E700BF94F60400A0F6040037
:1080B00070B5194C194D8CB00022002303A920463D
:1080C0001BF066F908B10CB070BD2B68059E5868AE
:1080D000DDE903121CF039FD0028EDDBFF238DF8EC
:1080E0001830B6FA86F35B0907908DF8203023F03C
:1080F000DAFA4FF47A72A0FB020302FB0131C00BE3
:1081000040EA4140C90B8DE8030006ABCDE90A0106
:108110000FCB00F0B7F9CFE7E00C0020841E002061
:108120001FB50A4C2468A46884420DD183F0010372
:10813000CDE90112039306480022002301A91BF098
:10814000D1F804481BF06AFB04B010BD841E002067
:10815000E00C0020741E00201FB50023CDE902337F
:10816000044B8DF80C0001A801931CF015FD05B01F
:108170005DF804FB70C40400044B1A68044B9A4277
:1081800014BF6FF012000020704700BF841E002053
:108190005CC4040038B5044628B3144D2B688342F0
:1081A0001FD02BB1986818B183685B6803B19847FA
:1081B0000F49104B8C4214BFED2100212C220020CE
:1081C0001CF0DDFC00280DDBA0682C6048B1836842
:1081D00009491B6898472B68986883689B6803B1B6
:1081E0009847002038BD6FF01200FBE7841E002086
:1081F0005CC40400C41D00202181020038B505467E
:1082000048B90648FFF7C6FF041E02DB2846FFF701
:10821000A3FF204638BD6FF01504FAE75CC40400E4
:10822000F7B50C4615460D4901AA1E461DF0D4FCB3
:1082300068B1019B6BB9012C0DD1094F224639461B
:108240003046A847002802DD3878FFF7D7FF03B093
:10825000F0BD0020FBE76FF01500F8E7DCDF04005D
:10826000F40A00200148FFF795BF00BF5CC404007A
:1082700008B50749074823F046F8074A002342F8A3
:10828000043B01332C2BFAD1BDE80840FFF7EABFCD
:10829000B1800200741E0020C41D0020F8B50F4DEF
:1082A0000F4E761B07460C4605EBC105C6F3C70605
:1082B000A64201DC00200CE02A683B689A4209D102
:1082C0003C716B6838461B68984718B1431E012BF8
:1082D000F0D9F8BD01340835EAE700BF6CE70400C7
:1082E0008CE7040000B58BB0064B074A282168468E
:1082F0001CF04CF905490122684601F0BDFE0BB0A7
:108300005DF804FB24E004002EE00400A9430020F3
:108310002DE9F8434768044600254FF001087B68C3
:10832000AB420DD82149224823F031F8A3681B68DD
:108330000BB120469847398939BB0020BDE8F88346
:108340003A6802EBC50352F835001979DB88D0F89A
:1083500010C0D0F80890DCF80060DA0754BF43F48E
:10836000B01383F4D01323F4801208FA01FEDB0764
:108370004CBF46EA0E0626EA0E06CCF80060D9F895
:108380000030984770B90135C9E740F2E7304FF443
:108390007A72002300EBC1300021FDF7B1FE1BF023
:1083A000A1FDCAE76FF00400C8E700BFE582020044
:1083B000080F002008B5074B5A784AB901221A70F5
:1083C0000548002200231BF091FA04481CF0FAFB38
:1083D000002008BDA9430020080F0020F0BF0400C2
:1083E00008B54FF4F012002302481BF0B3FA00EA7C
:1083F000E07008BD080F0020F7B50C46164611497D
:1084000001AA1F461DF0E8FBB0B1019BA3B9012CE6
:1084100015D10D4D224629463846B047002806DBC7
:108420002B780A486C7023B11CF0CCFB002003B001
:10843000F0BD1CF0E3FBF9E76FF00100F7E76FF028
:108440001500F4E724E00400A9430020F0BF040075
:108450001FB50023CDE90233044B8DF80C0001A8B1
:1084600001931CF099FB05B05DF804FB94C4040073
:108470000268034B9A420CBF08300020704700BFCF
:1084800094C4040084B030B589B00CAC84E80F000B
:10849000002301930CAD084B00930FCD02AC0FC429
:1084A00095E8030084E8030068461CF075FB09B0FA
:1084B000BDE8304004B0704798C404000268034B24
:1084C0009A420CBF08300020704700BF98C40400D7
:1084D0001FB50023CDE90233044B8DF80C0001A831
:1084E00001931CF059FB05B05DF804FBA0C4040027
:1084F00082B038B504A981E80C00054611481AF08D
:10850000ADFC0446A0B16B68012B0CD0022B05D04A
:10851000A3B9BDE8384002B01CF09FBB1CF0A4FB1F
:1085200000282046F5DCBDE8384002B01CF08EBBC8
:108530006FF00400BDE8384002B070476FF085006E
:10854000F8E700BF24E0040082B010B502A981E87A
:108550000C0004460B481AF081FC78B16368022BCA
:1085600004D00020BDE8104002B070471CF07CFB36
:108570000028CCBF002001206060F2E76FF004000B
:10858000F0E700BF24E004001FB50023CDE902336B
:10859000044B8DF80C0001A801931CF0FDFA05B006
:1085A0005DF804FBE0C4040008B500F06DFABDE816
:1085B0000840014922F0D4BEA802002007B50848AF
:1085C00022F081FC48B14FF4F0120023CDE90023E2
:1085D0000448002200231BF001FF03B05DF804FBF8
:1085E0002CC00400E00B002008B5FFF741FF10B9D4
:1085F0006FF0850008BDFFF729FD38B10138C0B222
:108600000128F5D8034823F095F801E0FFF7D6FFDD
:108610000020EFE7E00B002037B50E4CA5682D21B8
:10862000EB682046984790B92D212B696A46204671
:10863000984760B9084C00982378834207D0C0B2AD
:10864000207001F0F1FC10B92078FFF79DFF03B016
:1086500030BD00BF2CC00400AB43002008B5054866
:1086600022F031FC18B1FFF7A9FF002008BD6FF020
:108670001200FBE72CC004001FB50023CDE9023334
:10868000044B8DF80C0001A801931CF085FA05B08D
:108690005DF804FBE8C4040008B5BDF808101944EF
:1086A000012908DC3BB1054B127805481A701BF014
:1086B000B5F8012008BD6FF00600FBE7AC430020D1
:1086C000F8020020014B1878FFF798BDAC4300205A
:1086D0001FB510240294044C0194BDF81840009476
:1086E00020F0B6FE04B010BDC143002007B5064B14
:1086F00000930649064805234FF43E721BF094F898
:10870000002003B05DF804FBF0C40400A84400207E
:10871000380F002070B50F4D0F4E8AB00022002395
:10872000694628461AF034FE044608B10AB070BD06
:108730002146182204A823F07BF910230DEB030136
:1087400020460596CDF818D0ADF81C3006F0B2FFE3
:10875000E4E700BF100D00200CC504001FB50E4952
:108760000E4840F6CD4200231AF0BCFD044670B11D
:1087700010F10B0F08D100220023694607481AF0B8
:1087800007FEFFF7EBFF0446204604B010BD044986
:10879000044822F0E5FDF7E7C1430020100D00205A
:1087A000B8020020380F0020C208054900F0070079
:1087B00001238340885C03438B54FFF7CFBF00BF86
:1087C000C143002010B4C108064C00F00700635CF0
:1087D0000122824023EA020363545DF8044BFFF751
:1087E000BDBF00BFC1430020014B1970704700BFDF
:1087F000D243002010B5002003F04AFC044610B913
:10880000024801F0C9FC204610BD00BF080300204B
:1088100010B5074804F050FF064805F0CBF8064BAA
:10882000064800241C701AF0F9FF204610BD00BF56
:108830003003002020030020D143002050030020FB
:10884000094BB1FA81F010B540090C461870FFF7DA
:1088500013FF3C2C07D1054B054801221A70BDE8D7
:1088600010401AF0DBBF10BDD3430020D1430020DD
:108870005003002070B503788AB004460E4607AD59
:10888000032B20D8DFE803F002191B1D11492846ED
:10889000FDF7AAFD059563780493A3780393E37825
:1088A00002932379019363790093A3790A4A1E21E5
:1088B00030461BF06BFE0AB070BD0849E7E7084977
:1088C000E5E70849E3E7084A0A2128461BF05EFE6F
:1088D000E0E700BF55E104007EE104005CE1040034
:1088E00063E104006DE1040077E1040010B588B095
:1088F0001FF098FC6946FFF7BDFF0024054B20469A
:108900001C70FFF7B9FE044B04481C701AF086FF78
:1089100008B010BDD3430020D143002050030020F5
:1089200070B5204E204B3068B2881C781F49B3794F
:108930008AB003AD0390ADF8102000202A46AB7139
:1089400007F07EFF31460722284623F00CFA184B29
:108950000646D0B1ACB903202246214601241C7042
:108960000023CDE90602CDE90815ADF814308DF8E5
:10897000163000931A46194605A804F0C9F80AB043
:1089800070BD1320A022F021E8E70A4D18700FCD2A
:1089900005AC0FC42B6823600749009633460322B9
:1089A000EAE700BF51E30400D1430020BD89020083
:1089B000D2430020F0C20400ACC5040038B5072241
:1089C0000C460649054623F0CEF928B12B682360F2
:1089D000AB88A380AB79A37138BD00BF51E304001D
:1089E00008B5044801F048F8002818BF6FF01500DA
:1089F00008BD00BF218A0200084B1B780B2B4FF0EB
:108A000001000AD8984010F4CD6F05D110F4016F21
:108A10000CBF01200020704702207047800B00200F
:108A20000A2808B5024613D00A4B0B491870FFF705
:108A3000E3FF02280AD10B78032A08BF43F00103A1
:108A40000B70BDE8084005481AF0E8BE0023F7E7C0
:108A500008BD00BF800B0020D4430020600300202D
:108A600007B5064B0093064906480A234FF44072A7
:108A70001AF0DAFE002003B05DF804FBC4C5040060
:108A8000A047002020100020004870472010002040
:108A900010B5094C0A44914200D110BD11F8013BB8
:108AA000584003090001E35CC0B2434018091B01B0
:108AB000205CDBB25840EEE7C8E10400014B1B68C4
:108AC000184700BF7003002030B585B004460D463E
:108AD00010220021684622F0ABFF02238DF80230FD
:108AE0002A46044B0193214668461BF0DFFD05B082
:108AF00030BD00BFBD8A020080B505460E46174650
:108B000098461BF023FA034623F080F9DFF818900B
:108B1000044649F80030424630463946A84754F8E2
:108B2000090001F07DFF00BF080000002DE9F047BB
:108B3000058B04462807904611D4022905F0070545
:108B400040F0CD8020461CF0EFFB78B10138218B3E
:108B5000042811D8DFE800F0C3106D8595000129C5
:108B60000CBF45F0100545F02005258388F31188DA
:108B7000BFF36F8FBDE8F08701F0070AAA4500F048
:108B8000A6800027B9463E46A368002B00F0BD80B2
:108B900041F00801218388F31188BFF36F8FA1682A
:108BA000002900F0BB800D68002900F0B780D1F8E3
:108BB0000480334652462046C047002D76D02B68AD
:108BC00029461D46F0E701F007035A1F012A1BD86A
:108BD000002221F00701062B276889B2C4E9002290
:108BE00009D13B4603E0628B013262831B68002B94
:108BF000F9D141F00201218320461CF095FB0028A9
:108C00007BD041F0200177E0042B0AD121F007014D
:108C100089B2218320461CF087FB10B141F020016E
:108C20002183218B01F0070AAA4550D00027B946BD
:108C3000AAE7236921F0070141F00601062DD3F8C8
:108C4000009021832DD1B9F1000F40D041F00801EF
:108C5000218388F31188BFF36F8F3A492046C847B4
:108C600029E021F00701236941F0040189B2042DB4
:108C7000D3F804902183E6D000273E464FF0040A43
:108C800082E721F00701236941F0050189B2052D32
:108C9000D3F808902183D6D000273E464FF0050A2E
:108CA00072E700273E464FF0060A6DE72B4687E73E
:108CB000B9F1000FD1D14FF02003EFF3118883F306
:108CC0001288BFF36F8F238B23F008032383258B38
:108CD000EA062ED525F01003238305F00705666903
:108CE000218B002EBFF66FAF00232768C4E9003345
:108CF00021F0070141F001012183218B01F0070AD6
:108D0000AA454FF000097FF43FAF002F9BD041F000
:108D10000801218388F31188BFF36F8F002FC7D01C
:108D20003D6839463346524620461CF029FB2F4603
:108D3000F4E7AB067FF51AAF25F02003238305F097
:108D40000705FFE6AD53040008B504464FF02002C6
:108D5000EFF3118382F31288BFF36F8F18F05AF983
:108D6000204602F00DF903481CF0EBF801F0C8FFB3
:108D7000FCE700BFD8E1040018F076B92DE9F7430D
:108D80000F4606460821C06ADFF850901CF091FC9F
:108D90003C68241A80463C6004EA0905AC4203D8CA
:108DA000002003B0BDE8F08308236A462146304620
:108DB0001CF0F2FB0028F4D1694630461CF083FC1D
:108DC00040B1BDF80230BDF804203C6005EA090559
:108DD00013441D44A4EB0804E0E700BF0000FFFFBC
:108DE0002DE9F047044688B000F11407384622F018
:108DF00049F9A06A8368DB689847E06228B96FF098
:108E00001505284608B0BDE8F087A06A8368DB68CE
:108E100098470368013B1F2BF1D8A06A216805AA77
:108E200021F065FC0028EAD1A589002DE7D0069B3A
:108E3000B5FBF3F203FB1255002DE0D1E389012BC2
:108E4000DDD9E36A009593F804904FF0FF334FF0BB
:108E5000FF3238461AF0F6FAE06A08211CF029FCC5
:108E6000A8460646E3891FFA85FA534508D8E389E0
:108E7000434523D138461AF05FFB6FF02C05C0E75D
:108E8000A1892B04891B13FA81F14A460823204645
:108E900000911CF0CFFB78B1694620461CF08AFB9C
:108EA00008F10108009908234A4620461FFA88F86D
:108EB0001CF0C0FB0028DAD00135D3E753450BD1B5
:108EC000009908234A46891B20461CF0B3FB18B9B9
:108ED000694620461CF06EFB69462046FFF74EFFB0
:108EE000054618B138461AF027FB8AE7009B6360F5
:108EF0004FEA13484FEA0848C4F80880D4E9011340
:108F000099420FD3082301AA20461CF045FB0546D1
:108F10000028E7D101AB13F8012B914533D101357E
:108F2000082DF8D163681B0C1B046946204600938A
:108F30001CF040FBA38900994A4620461CF07AFBAE
:108F4000051ECFDB636876D006EB03084FF6FF798A
:108F5000A389CDF800801FFA88F29B1B9A422ED37A
:108F600000236168002B43D0090C090400912046BE
:108F700069461CF01FFB009920461CF080FB05464B
:108F8000002D74D0AEE701A920461CF09CFB62685E
:108F900010B9921B6260B1E7BDF80850BDF8061029
:108FA000E06AC4F8088029441CF083FB40449042E6
:108FB000A060EED1002DECD06FF01C0568E0082316
:108FC00003AA414620461CF0E7FA0546002889D14D
:108FD00003A920461CF077FB30B1BDF80C304B459F
:108FE00002D1BDF810300BB1B044B1E70123B8E7AE
:108FF00020461CF044FB054600287FF473AF6368ED
:10900000264AA18913400B44A3EB46036360134037
:10901000A36020461CF03BFCB1E75B1A4A462046A1
:109020001CF008FB051EFFF65DAF08D0E26AA368DE
:1090300012681344A360D4E901318B42EDD8616812
:10904000A38901EB46029A429AD1DFF85080A268C8
:1090500001EA08039A4293D020461CF010FB054613
:1090600000287FF43FAF636803EA0803A360A38985
:10907000A288A3EB46039A4206D038461AF05CFA5F
:10908000012323740025BCE620461CF0E9FB0546BD
:1090900038461AF051FA002DF2D0B2E60000FFFF78
:1090A0002DE9F04F1D46037C89B004468946904661
:1090B000002B00F0BE80C26A082110461CF0F9FAAD
:1090C0002946824610461CF0F4FAA389A3EB8A03D2
:1090D0009D42074600F2B0801DB1B8F1000F00F0CC
:1090E000AB806368039304AA03A92046DDF80CB0A3
:1090F0001CF021FB0646002864D1BDF810304B451A
:1091000005D06268039B9A42EDD1E5B95AE004A903
:1091100020461CF0D8FA0028F3D0BDF81200BDF8A4
:10912000143075B19D420ED14FEA1B410904014430
:109130002B46424620461CF04AFA002803DC06462D
:1091400040E0002B3ED0002F40D104F114030193E6
:109150004FF0FF320198DFF8E8B04FF0FF331AF01C
:1091600071F9E3899E4261D0D4E90123F9188A425A
:109170002FD3ADF81A3006A8FF238DF81E30ADF8B6
:109180001890ADF81C501CF04CFAA1682B464246D2
:1091900020461CF01AFB29468246E06A1CF089FA38
:1091A000A2680244A260BAF1000F07D106A92046C6
:1091B0001CF045FB002814BF8246AA4601981AF00D
:1091C000BBF95646304609B0BDE8F08F5744BFB2F0
:1091D000BBE7E06A08211CF06CFA4FF6FF73ADF8AC
:1091E000183000218DF81E30A389ADF81C1011181D
:1091F00002EA0B021A44101A606006A8ADF81A10B1
:109200001CF00FFA06A920461CF019FB211D204670
:109210001CF0D0F9636803EA0B03A36020461CF03E
:1092200036FB82460028C9D101369AE76FF01B0A47
:10923000C4E76FF00C06C5E76FF01506C2E700BF84
:109240000000FFFF014B036000207047CCC5040005
:1092500070B5114B1C680D46DCB1104B196800232A
:109260008B4202DB6FF0010070BD224612F8106BDA
:10927000864202D001331446F2E7E06810B96FF07D
:109280001200F1E721F01FFE0028F8D02C6000202A
:10929000EAE76FF00C00E7E774030020CCC5040098
:1092A00070B588B005460C46C0B269461646FFF751
:1092B000CFFF00281BDB0098C8B143680293836886
:1092C00022680195CDE903360023CDE906230593F5
:1092D000C5681CF014FC6DB12846084901AA21F0AC
:1092E0000AFA079808B9059B236008B070BD6FF0B3
:1092F0001500FAE76FF01200F7E700BF015B04000A
:10930000F0B40C4B0C4E5F6A0C4BB34203D36FF0BE
:109310008500F0BC70475D68BD4209D31C693CB153
:1093200095F802C00579AC4502D12346F0BC184738
:109330002433EAE7881E0020050F0020050F0020D7
:109340002DE9F047134CDFF85080DFF850900546C8
:109350000E461746444503D36FF08500BDE8F087FD
:109360006268D9F824309A4212D3A36983B1907805
:109370002979884205D13A4631462846BDE8F0476A
:1093800018475279012A03D13A4631462846984770
:109390002434DFE7050F0020050F0020881E002081
:1093A0002DE9F0410B4CDFF8308005460E4617469C
:1093B000444502D36FF0850009E063690BB924349A
:1093C000F6E73A463146284698470028F7D1BDE8E7
:1093D000F08100BF050F0020050F002010B50446E6
:1093E00021F049F810F1780F00D050B9054A204615
:1093F0001CF0A8FBD2F8C43023EA0003C2F8C43042
:10940000002010BD881E0020024B00221A605A6006
:10941000704700BF431F002070B50B4B0B4CA3429D
:1094200001D3002070BD196A1E7F00220439D5B215
:10943000AE4201D82433F2E7013211F832508542AE
:10944000F5D10120EEE700BF050F0020050F002039
:1094500008B509480378C3F341130A3350F82330A1
:109460003BB100F1080200F110019847C043C00F62
:1094700008BD1846FCE700BF881E002004282DE91F
:10948000F14FDFF8A09004460F4616D001282DD1E9
:10949000DFF88C8098F8B93043B300F065FD1F4DBC
:1094A0004D4520D2D5F820B04FF0000A2B7F5FFA4F
:1094B0008AF6B34204D82435F2E7FFF7A5FFE7E7C1
:1094C0000BEBC6060AF1010A307920F0D4FF024600
:1094D00030791CF037FBD8F8C430002A23EA0003A7
:1094E000C8F8C430E2DA002388F8B9300B4D4D4596
:1094F00008D30B4B1B6A6BB13946204601B0BDE85F
:10950000F04F1847EB681BB13A462146284698476A
:109510002435ECE701B0BDE8F08F00BF050F002057
:10952000881E0020050F002073B5C4B263060D46E7
:109530008DF8074007D02046FFF76EFF78B10D4B3E
:1095400093F8BA0058B10B4E204655B116F0FEF80C
:10955000F3691BB10DF1070108209847012002B003
:1095600070BD16F01BF9F369002BF7D00DF1070160
:109570000920F2E7881E002073B586788DF8006018
:10958000037942791C4C43EA0223ADF80230C378D8
:10959000304603F003038DF804301CF0D3FAD4F8FE
:1095A000C430184205460BD0304600F0BFFC3046B0
:1095B000FFF714FF21F047FD10B996201AF0ACFC1C
:1095C000684616F09FF810F1780F03D010B1002014
:1095D00002B070BD9DF8000016F01CF910F1780F74
:1095E00001D00028F3D1D4F8C43001202B4384F8F3
:1095F000B900C4F8C430EBE7881E00202DE9F0471D
:10960000A34EB36904460F461546FBB9237803F011
:109610001F03012B00F09D80022B00F0048133BB5F
:1096200094F900002A686178002834DA062912D0FB
:1096300008292BD0D9B901231370517096F8C33083
:109640005B0043F00103137002232AE198470028CE
:10965000DCD100200DE06288100A011F0129844638
:1096600005D9072803D8716AD2B20C781CB96FF0FB
:109670001500BDE8F0874E78664503D19A4200F0A8
:109680000B8101332144F0E70B780AE196F8BA30F8
:109690001370012305E101390829E8D801A353F823
:1096A00021F000BF3D9702006F9602004B97020029
:1096B0006F960200C99602006F9602006F96020034
:1096C0006F960200D5960200A07816F009F80028DF
:1096D000BFD0CCE76388756A63BBFFF795FE6388EC
:1096E00086F8BA30F369002BB3D06A490320984753
:1096F000AFE76B78042B10D0052B11D0022B04D1CF
:109700006F796388BB4208BF01202B781D442B78FA
:10971000002BEED10028AAD0DFE795F80380F4E70C
:109720006388BB42F1D1B8F1000FEED12846FFF7B4
:1097300023FFEAE7FF270020B846E8E76388012B0C
:1097400095D1002386F8C33083E76388012B8ED13F
:10975000F8E796F8BA30D5F800C0002B87D0756AC4
:10976000A38894F804E02A46107800283FF47FAFDD
:109770005178022904D192F80480F04500F29380D8
:109780000244F1E78CF800208CF80120396060E792
:10979000154494E00B2A7FF46AAF00274FF0FF08CE
:1097A000C146BA4606E06B78042B0FD0052B21D0BA
:1097B0002B781D442B78002BF5D1F36913B151465A
:1097C00007209847002F7FF444AF50E795F80280B8
:1097D000A38895F803909845EAD163889945E7D125
:1097E000B8F1070F1CD806EB0803AA4683F8BB9014
:1097F0000127DDE7A3884345DAD1A3784B450AD09A
:10980000AF78384600F092FB3846FFF7E7FDB0FA34
:1098100080F77F09CCE72846FFF7AEFE0746C7E78B
:10982000AA460027C4E794F900206378002A18DAD2
:10983000002B7FF41CAF24792D6863060AD02046E4
:10984000FFF7EAFD00283FF412AF96F8BA30002B7C
:109850003FF40DAF2946204615F0C0FF00236B7082
:10986000F2E6012B08D0032B7FF401AF6388002BB5
:109870007FF4FDAE012103E0618800297FF4F7AE9B
:10988000A088FFF751FE00287FF4E3AEEFE600BFAB
:10989000881E0020421F0020022829607FF4F4AEB9
:1098A0004B883B60D5E694F9000062780028BFF64B
:1098B00071AF002A3FF466AF0A2A7FF4D8AE2A7847
:1098C000002A3FF4D4AE697804297FF461AFA97807
:1098D0008B427FF45DAF072B96BF9B19002393F853
:1098E000BB308CF80030D4E613B5164C237DF3B9A9
:1098F000E268A168019201AB80201CF031F9019A65
:10990000A3681344A360E3689B1AE3606BB962B178
:109910002369E2889A4208DD94F8C82093FBF2F1AB
:1099200002FB11330BB90123237502B010BD0023D4
:109930001A4619468020237502B0BDE8104015F084
:1099400093BF00BF881E002030B585B000230246BB
:109950000D460193002858D1002935D108220B4625
:109960000DEB020120F0A0FD002804DA802015F0A4
:10997000EDFE05B030BD2A4C029A2260039A626067
:1099800004F13802A2609DF90820BDF80E3025755B
:10999000002AC4E903550ADB802B04D9802015F086
:1099A000D5FE0020E3E713B1C4E90333E1E7FFF795
:1099B0004FFD0028DAD0E28823699A42D4BFE260E2
:1099C000E360FFF791FFD4E7154CD4E90215002DB1
:1099D00001AB04DC20F068FD0028CADAC6E72A469D
:1099E00020F062FD0028D9DB019AA3681344A3602C
:1099F000E3689B1AE360002BBBD104F13803A3603A
:109A0000FFF726FD0028DCD1B0E78028B1D1044B58
:109A1000DA68002AD5D11B7D002BD2D1A9E700BF7F
:109A2000881E0020054B064A9A62064ADA62064AF8
:109A30001A63064A58629A6100207047881E002007
:109A4000FD95020001930200A193020041930200E0
:109A500010B5084B93F8B84034B900F0E3F830B1D2
:109A6000FFF7E0FF204610BD6FF07700FBE74FF0F7
:109A7000FF30F8E7881E00202DE9F341414D0446F0
:109A80006F6A41484FF0FF324FF0FF3319F0DAFCB4
:109A900095F8B860002E6ED13C482C62E86115F054
:109AA000FDFF15F0EBFD041E49DB00F081FA041EFA
:109AB00045DB7B78012B61D1FB79002B5ED06846BA
:109AC00085F8C830ADF802308DF804608DF800607C
:109AD00015F018FE041E32DB802768468DF80070F2
:109AE00015F010FE041E2ADB2949304615F0C2FF8E
:109AF000041E24DB2649384615F0BCFF041E1EDB7D
:109B0000244CDFF89480444520D3002015F082FED9
:109B1000041E14DBD5F8C430802043F00103C5F8DF
:109B2000C43015F077FE041E09DBD5F8C43043F4C9
:109B30008033C5F8C430012385F8B83000241248BA
:109B400019F0FAFC204602B0BDE8F081276A002631
:109B5000227FF3B29A4201D82434D4E707EBC30240
:109B600057F83310107915F085FF01360028EFD033
:109B70004FF0FF34E3E76FF07704E0E76FF0150490
:109B8000DDE700BF881E00209C0C00207D940200B1
:109B900049990200050F0020050F002030B51F4B2A
:109BA0008BB005AA03F1100518685968144603C460
:109BB0000833AB422246F7D11B78237010220021D4
:109BC00001A821F035FF12220021154821F030FFB5
:109BD000102101A820F010FE00281BDD0828B8BFC6
:109BE0000820093801AB0E491A18002012F8013F6D
:109BF0000AAC04EB131403F00F0328336B44013059
:109C000014F8144C13F8143C0C7008284B7001F134
:109C10000201EBD102480BB030BD00BF01E20400ED
:109C2000D54300202DE9F04F704C87B04FF0000B6A
:109C300000264FF0011AB0463546B14623782BB9BD
:109C40006B4B02349C42F3D1684833E06378052BB8
:109C50001BD8DFE803F09003C8901D3B402304A805
:109C60008DF810B0ADF812308DF814B020F0EEFB86
:109C700040B1082304A8ADF8123020F0E7FB08B18A
:109C8000ADF812B0BDF81230E37123781C44D5E76B
:109C9000E378002BF9D1A3787BB108F101085FFAD2
:109CA00088F8F2E76B689C4209D02435514B9D42FD
:109CB000F8D3002007B0BDE8F08F4F4DF6E7AB6852
:109CC000002BEAD0414620469847E6E7002DF0D029
:109CD00000222B7F9A42ECD2296AA07801EBC201C4
:109CE0000B79984201D00132F3E70127E07800F0C8
:109CF00003008DF81400207994F805C040EA0C2088
:109D0000ADF8120094F902000028FBB228DA07F13E
:109D100010004FF0010C0CFA00F010EA0A0F26D1E7
:109D200043F080008DF8100004A8CDE902130192E1
:109D300020F08CFBDDE90121039BC0B99DF81020C8
:109D4000A27012F0800F18BF10330A7118BFDBB277
:109D50004FF0010214BF9A40BA404AEA020A94E75F
:109D60000120B84010EA0A0F01D11846DAE701379E
:109D7000102FBBD1B7E7032E1DD1FFF70FFF07460A
:109D800068B1FCF739FB102809D13846A31C07F14C
:109D9000100250F8041B43F8041B9042F9D12378B9
:109DA0006FF00201E218091B04EB5303D14213D5F3
:109DB0000136F6B269E7002EF1D1B9F1000F3FF498
:109DC00078AFA4EB090389F80230C3F3072389F8BD
:109DD000033089F80480EBE702F801BC13F80109AD
:109DE00002F8020DE2E7A1464FE700BFA80E0020EF
:109DF000050F0020050F0020050F002010B5094BAE
:109E000000211A461C78844205D15C681CB14823A5
:109E100003FB012010BD0131042903F14803F1D1F6
:109E20000020F7E7541F00202DE9F34150F8303CA3
:109E300010F8346C1033044610D1036950F8282C04
:109E4000990739D5EAB913F0040304D11A46194623
:109E500030461BF085FE002344F8303C54F8303C7B
:109E600010330BD054E9097554F81C8C21F0EBF831
:109E700000284CD02C48214621F072FA02B0BDE8EF
:109E8000F08150F82C1C01AB30461BF069FE10B17C
:109E90006FF01503E0E7019A54F82C3C134444F8A2
:109EA0002C3C54F8283C9B1A44F8283C54F8243C99
:109EB000134444F8243CD1E750F82C1C01AB304645
:109EC00015F04EFD0028E3D1019D54F82C3C2B44A5
:109ED00044F82C3C54F8283C5B1B44F8283C54F8CC
:109EE000243C2B4444F8243C002DB4D0304615F0DB
:109EF000DBFDB5FBF0F303FB1055002DABD154F89F
:109F0000283C002BA7D0304615F072FDA6E744F898
:109F1000200CA4F1180019F07FFB002DAED04246B2
:109F200039463046A847A9E7B81C002010B54FF0C5
:109F30002003EFF3118483F31288BFF36F8FFFF7D1
:109F40005DFF50B14368103307D16FF08B0343605E
:109F500000F13401034821F003FA84F31188BFF3C0
:109F60006F8F10BDB81C002070B50F4C04254FF04A
:109F70002003EFF3118683F31288BFF36F8F6368BA
:109F8000103307D16FF08B030848636004F134018C
:109F900021F0E6F986F31188BFF36F8F013D04F1DC
:109FA0004804E4D170BD00BF541F0020B81C00203D
:109FB00070B50A4C0A4E00253146204621F0A3F91F
:109FC0000122A4F118001146013521F019F9042DE0
:109FD00004F14804F0D1002070BD00BF881F0020AC
:109FE000299E02001FB507240294044C0194BDF879
:109FF000184000941FF02CFA04B010BD810B002013
:10A0000010B5084C86B024788DF8174001240294CE
:10A010000DF117040194BDF8204000941FF018FAC8
:10A0200006B010BD880B002000B589B064288DF8FB
:10A03000070019D80E4B18221870002102A821F031
:10A04000F7FC0C4B03930DF10703049302A90123C2
:10A050000020ADF8143005F02DFB10F1800F08BF83
:10A06000002009B05DF804FB6FF01500F9E700BFB0
:10A07000880B0020B0C604002DE9F0410F4B1C688E
:10A0800005460E461746ACB14FF0FF324FF0FF3396
:10A090000B4819F0D7F963683246D3F8088029468F
:10A0A0003B462046C0470446054819F045FA20467D
:10A0B000BDE8F0816FF00104F9E700BF74200020D3
:10A0C000880C002000230360044B5A6812B9C3E9CE
:10A0D0000000704710605860704700BF7820002073
:10A0E000014B1860704700BF7420002030B585B068
:10A0F00000230546CDE9023301904FF0FF330C48B1
:10A100004FF0FF3219F09EF90A4B1C684CB92846F3
:10A1100000F0CEF80446064819F00EFA204605B0C5
:10A1200030BD636820461B6801A998472468EDE7A5
:10A13000880C0020782000201FB5CDE90101039292
:10A140004FF0FF330A484FF0FF3219F07BF9094B0B
:10A150001C682CB9064819F0EFF9204604B010BD70
:10A16000636820461B6801A998472468F1E700BF8F
:10A17000880C002078200020024B0022C3E9002236
:10A18000704700BF78200020024B0022C3E9002264
:10A19000FFF7F2BF8020002070B51B4C1B4E054618
:10A1A000B44212D31A4E1B484FF0FF324FF0FF3328
:10A1B00019F048F934687CB1286854F8141C143C30
:10A1C000FCF708F9C8B16469F5E721682868FCF76D
:10A1D00001F9A8B11434E3E700226A61726805F15D
:10A1E00014033AB9C6E9003300240A4819F0A4F967
:10A1F000204670BD13607360F6E76FF01004F4E75B
:10A200006FF01004F4E700BF3CC20400DCC204009D
:10A2100080200020880C00202DE9F74307460C46DB
:10A2200009B100230B601F4DDFF8809000264D45DB
:10A230000FD31D4B1D6885B355F8148C01AA4146F8
:10A240003846143D1BF0C8FC10B3D6B914BB2E46DB
:10A250001EE0D5F8008001AA414638461BF0BCFC40
:10A2600050B116B954B92E4606E031680022404676
:10A270001BF0B2FC0028F5D11435D8E7019B236010
:10A28000F1E73168002240461BF0A6FC0028DDD132
:10A290006D69D0E7019B2360D9E7304603B0BDE884
:10A2A000F08300BF3CC2040080200020DCC2040018
:10A2B000F8B5184C184F06460025BC4208D3174B7A
:10A2C0001C682CB3143CB6B9E368E3B96469F8E7D9
:10A2D0002EB9E3685BB9284614340546EDE72068DB
:10A2E000002231461BF078FC0028F2D1F3E79847B2
:10A2F000002DF0D1F0E72068002231461BF06CFC05
:10A300000028E1D1E2E79847002D08BF0546DDE7C8
:10A310002846F8BD3CC20400DCC2040080200020B6
:10A3200038B50C4D0C484FF0FF334FF0FF3219F0A9
:10A3300089F82B783BB9FFF727FF00F06DF804464A
:10A3400010B901232B700024034819F0F5F82046BA
:10A3500038BD00BFE7430020880C00202DE9F047FE
:10A36000048FDFF8B0A0013498B080468946A4B2CB
:10A3700000F10806651EADB2B5F5004F47D04A237F
:10A3800005AA294630461BF0B3FB04F57F543F3441
:10A39000A4B20746214601230DF10B0230461BF003
:10A3A000A7FB002F014603DC002803DC2C46E1E775
:10A3B000002816DCB8F83830AB4209D142466B1E93
:10A3C00022F8383F4FF4004102233046FEF768FE82
:10A3D000294630461BF028FB214630461BF024FB63
:10A3E000E4E707F160030DEB0307002307F84C3C9B
:10A3F0005246CDF8009003AB05A80396ADF8104087
:10A400001BF020FC0028D1D018B0BDE8F087002058
:10A41000FAE700BFB35C04007FB501236946022060
:10A420000193FEF715FF044660BB02AA01A90220B2
:10A43000FEF736FF044610B110F10C0F22D103993C
:10A44000B1F5803F23D2009A00239468184608444F
:10A4500084421AD30133082BF9D10E4DA982EB8225
:10A460005368AB602846D368EB631BF0BCFC044622
:10A4700040B9094E6E602846FFF724FE28466E60FC
:10A48000FFF72EFE204604B070BD9BB2E5E76FF0EB
:10A490002004F7E788200020B0030020014B186853
:10A4A000704700BFC4030020F0B5082289B01BF03C
:10A4B00072FECB6A03930B6B04934B6B05938B6B10
:10A4C0000693CB6B079313466A460C460646002755
:10A4D00011461046CDE9017700971BF06BFD314620
:10A4E000054630461BF066FD216B0391616B0491BC
:10A4F000A16B0591E16B0544CDE9061710461146A5
:10A500001BF058FD3146054430461BF053FD054411
:10A51000206A0090606A0190A06A0290A06B069089
:10A52000E06B07903046CDE9047703971BF042FDBE
:10A530000544606A0090A06A0190E06A0290A06BF6
:10A54000D4F834C00490E06BCDF80CC0CDE9050C14
:10A55000206A079030461BF02DFD0544E06A00900C
:10A56000206B0190606B0290206A0690A06A0790B1
:10A570003046CDE9047703971BF040FE236B009330
:10A58000636B0193A36B0293E36B0393636A06937C
:10A59000E36A07932D1A082330461BF02FFE636BE6
:10A5A0000093A36B0193E36B0293236A0393636AA3
:10A5B0000493A36ACDE90537236B07932D1A08236B
:10A5C00030461BF01BFEA36B0093E36BCDE9013714
:10A5D000636A0393A36A0493E36A0593636B079327
:10A5E0002D1A082330461BF009FE2D1A10D40D4CED
:10A5F00035B90822314620461BF0D9FD01280FD07D
:10A6000008232246314630461BF0F8FD2D1AEFE7AD
:10A61000044A0823314630461BF0CCFC2D18F8D4F0
:10A6200009B0F0BD04C704000449431E0F3013F8FD
:10A63000012F8A5C1A708342F9D170471EE2040030
:10A64000F0B5264E07460C460FCE8DB001AD0FC5B6
:10A650000FCE0FC596E8070085E807003846002FA3
:10A6600038D0002C38D0381F2146024610344B78A1
:10A670000D781B0443EA0563CD782B438D780431B4
:10A6800043EA05238C4242F8043FF0D1144C0421E4
:10A690008A07036916D1C3F30742A55C1A0EA25CB0
:10A6A00042EA0562C3F30725DBB2655DE35C42EA7B
:10A6B000054242EA032221F0030330336B4453F88E
:10A6C0002C3C534050F8042F013153402C29036196
:10A6D000DED101200DB0F0BD2046FBE704C304002D
:10A6E0001EE2040030BFFFF7FDBF00BF114B124A4E
:10A6F0002DE9F041D518DFF84C80013DB5FBF3F5AD
:10A700005D430E4B08EB0304013CB4FBF3F403FB85
:10A7100004540E1B07460A49304621F07BF9701994
:10A7200042460021083E21F083F97E6704F10800CB
:10A73000BDE8F081010000000000000004000000FE
:10A74000E4C2040008000000044B9968986988423C
:10A7500003D003494FF080520A607047084300203D
:10A7600004ED00E0134B9A6A12F0007F9A6A14BF5E
:10A770001E201D2012F0807F9A6A18BF1F2012F43D
:10A78000002F9A6A18BF212012F4802F9A6A18BFEE
:10A79000222012F4003F9A6A18BF232012F4803F4F
:10A7A0009A6A6FEA02426FEA12429A6218BF242044
:10A7B000704700BF00ED00E010B5194B0246986AE3
:10A7C0009C6A10F4805F14BF1720162014F4006FE9
:10A7D0009C6A18BF1820A40509D5986B986A0004D4
:10A7E00004D51AB19A6A22F400429A6219200C4BDD
:10A7F0009A6A12F4806F9A6A18BF1A20D2050CD494
:10A800009B6A13F4005F18BF1C20054A936A43F447
:10A810007F43936200230B7010BD1B20F5E700BF40
:10A8200000ED00E010B51C4B0246986A9C6A10F0DF
:10A83000100F14BF1120102014F0080F9C6A18BFCD
:10A840001220A40709D5586B986A000604D51AB1DE
:10A850009A6A22F080029A6213200F4B9A6A12F0D1
:10A86000010F9A6A18BF142012F0200F9A6A18BFBD
:10A870001520D40658BF9B6A074B9A6A920642BFBE
:10A880005A6A22F400525A629A6A42F0FF029A62AD
:10A8900000230B7010BD00BF00ED00E070B5444B0D
:10A8A0005B689CB00646C3F30803002585F3118856
:10A8B000BFF36F8F02F07F40B0F17F4F11D102F0F4
:10A8C0000C0008280DD010074CBF0E4601250022B1
:10A8D000033B8DF80720032B05D8DFE803F01E5C4F
:10A8E00060592E46F3E700249DF807309BB9682293
:10A8F000314602A821F08EF8099B002D53D0C3F3F6
:10A90000080222B96FEA53236FEA4323099302A98D
:10A9100020461CF09AFB1CB070BD254BDA6A9107EB
:10A92000E1D4DA6A002ADEDBDA6A5200DBD55A6942
:10A93000B16942F480725A61BFF34F8FBFF36F8FDA
:10A940005A6931F8021C22F480725A61BFF34F8FAA
:10A95000BFF36F8F4DF60272914209D09A6AD2B25C
:10A9600042B10DF107010120FFF75CFF0446BBE790
:10A970003468B9E79A6A12F47F4F05D00DF10701E8
:10A980000120FFF719FFF1E79B6AB3F5803FAAD3D7
:10A99000FFF7E8FEEAE70DF107010020E4E70DF11B
:10A9A00007010020EDE723F4FF7323F00103ADE777
:10A9B00000ED00E0024A536943F010035361704711
:10A9C00000ED00E0EFF30880EFF3098101B5724676
:10A9D000FFF764FF01BD00BF044800232021C21817
:10A9E0000133302B82F80013F9D1704700E100E009
:10A9F000FEF7C2F9202080F3118808484FF4006167
:10AA0000401880F30988EFF314800221084380F393
:10AA10001488BFF36F8F00F0D5F80000B8650020F0
:10AA2000084B9B6883420BD1EFF3058343B1064B80
:10AA30005A6842F080525A605A6A22F400425A62BE
:10AA400019F08ABA0843002000ED00E0094A0A49DB
:10AA500093680968D967094998674B6843F0805340
:10AA60004B60002383F31188BFF36F8F9368D86F17
:10AA7000704700BF0843002094DF040000ED00E0B1
:10AA800021498A6882F8C1E04FF030001044EFF3AA
:10AA9000098C80E8F01F1EF0100F03D102F1800036
:10AAA00080EC108A202080F31288BFF36F8F174F3D
:10AAB0004FF000668A698A603E604FF07404141992
:10AAC0002068134C206092F9C1E0906F00239367D7
:10AAD00080F311881EF0100F03D00023E1EE103A2E
:10AAE00003E002F1800090EC108AEFF3148323F06E
:10AAF000040383F31488BFF36F8F02F1300090E8F2
:10AB0000F01F8CF3098870470843002004ED00E033
:10AB1000C82000201EF0040F0CBFEFF30880EFF3F5
:10AB20000980816911F8021C0229FFD001B51CF0CF
:10AB30008EFA01BD40B2002807DB044A4109012317
:10AB400000F01F00834042F82130704700E100E030
:10AB500040B200280CDB4309064900F01F002033F7
:10AB60000122824041F82320BFF34F8FBFF36F8F44
:10AB7000704700BF00E100E0054B420900F01F00F4
:10AB800053F82220012303FA00F01040704700BF61
:10AB900000E100E040B20028A8BF00F1604001F1F0
:10ABA0000101B8BF064B4FEA4111ACBF00F561404F
:10ABB00000F00F00C9B2B4BF195480F800137047F9
:10ABC00014ED00E0144A08B5144B22F07F029A609D
:10ABD000BFF34F8FBFF36F8FD3F8882022F470023A
:10ABE000C3F88820D3F8882042F4A002C3F8882054
:10ABF0004FF04042C3F83422BFF34F8FBFF36F8F43
:10AC00000023E1EE103A18F0A9F919F01BFAFFF74A
:10AC1000E3FE18F0F1F900BF0060020000ED00E073
:10AC200042F8203C009B42F81C3C019B42F8183C37
:10AC30000A49029B42F8143C4FF0807342F8043CEE
:10AC400021F00101002342F8081C203A83674FF4E9
:10AC50007D430265C0F8C030704700BFF98A02002A
:10AC6000114B9B6883421BD1EFF30580C0B94FF0B5
:10AC70002002EFF3118182F31288BFF36F8F1A7BEA
:10AC800022F002021A73EFF3148323F0040383F318
:10AC90001488BFF36F8F81F31188BFF36F8F7047F4
:10ACA0006FF01500704700BF084300200023E1EE5D
:10ACB000103AEFF3148323F0040383F31488BFF3F3
:10ACC0006F8FBFF36F8F094B9860094B406F18600F
:10ACD000104681F30988002163B681F31188BFF320
:10ACE0006F8F00220023FDF707FF00BF08430020FD
:10ACF000C8200020014910220A60704710ED00E0D2
:10AD000072B6404080F31188BFF36F8FBFF34F8F4F
:10AD100030BF62B6BFF36F8F704700BF72B6494055
:10AD200081F31188BFF34F8F20BF80F3118862B683
:10AD3000704700BF01B5EFF30580A0F110004FEAA6
:10AD4000C0000449014409C99847BDE801400249CF
:10AD50000847000040C0040049A70200024B034A14
:10AD60000348012100F030B800000420000000205A
:10AD7000B0C70400084AC2F898000B6823F01F030C
:10AD8000034343F01003C2F89C308B6843F0010387
:10AD9000C2F8A030704700BF00ED00E0044B052270
:10ADA000C3F89420BFF34F8FBFF36F8F704700BF7E
:10ADB00000ED00E0BFF35F8F024B0022C3F8942048
:10ADC000704700BF00ED00E010B5034C012322786E
:10ADD0001CF05CF9207010BDE8430020F0B5454D33
:10ADE0002C68082C85B000F28280FFF7E3FF00207A
:10ADF0000C2684420DD1404D404F2C706846FEF722
:10AE000021FA00240646A6420AD1FFF7C7FF002018
:10AE10001CE0696806FB0011FFF7ACFF0130E8E7B2
:10AE2000009800EB04114FEA041CCB683B40B3F5DB
:10AE3000000F4AD00CD8B3F5001F30D0B3F5800F07
:10AE400038D0B3F5801F12D06FF0150005B0F0BDFB
:10AE5000B3F1807F42D0B3F1007FF5D150F80C30D0
:10AE600088684A681CF002F940F4802009E050F834
:10AE70000C3088684A681CF0F9F840F0885040F4BB
:10AE80003020039028780728CDE90123DCD801A9D8
:10AE9000FFF770FF2B7801332B700134B3E750F8C4
:10AEA0000C3088684A681CF0E1F840F0885040F4A3
:10AEB0000020E6E750F80C3088684A681CF0D6F8A5
:10AEC00040F0007040F40030DBE750F80C30886848
:10AED0004A681CF0CBF840F08270D2E750F80C3092
:10AEE00088684A681CF0C2F840F08870C9E74FF0E3
:10AEF000FF30ABE7BCC70400E84300200000F0FFD0
:10AF000008B504481AF01DF8404080F311884FF04E
:10AF1000020002DF1EE3040008B50649064821F0DE
:10AF20000701C1F1005202F580221AF0A5F90020B4
:10AF300008BD00BF63840020CC2000200E4A0123FE
:10AF4000C2F840354FF080424FF08051C2F878355A
:10AF5000D1F83001082808D1D1F83411052904D8D6
:10AF60000648415C09B1C2F838364FF080430122EF
:10AF7000C3F880250020704700E001404BE3040047
:10AF80004FF08043C0B2C3F81C05BFF34F8F054993
:10AF9000054BCA6802F4E0621343CB60BFF34F8FE6
:10AFA00000BFFDE700ED00E00400FA0520B1034B0F
:10AFB000800143F001031847704700BF80C30400BD
:10AFC00008B504481FF07FFF00280CBF6FF0120087
:10AFD000002008BD64BF0400F8B5594EBFF35B8F75
:10AFE0003468BFF35B8F14F0010450D0554F564CBA
:10AFF000564D57483A4621461AF035FFE0B3202215
:10B000002946204620F0AFFE0028F2D000274FF05E
:10B01000FF324FF0FF33012000F04AFB00F10C0536
:10B020000221044628461FF0B7F93E23037042234D
:10B030004370012128461FF0AFF908230370412116
:10B0400028461FF0A9F9054600F8017BB7B1402258
:10B05000002120F0EDFCBFF35B8F56E8003F23F0AA
:10B06000010346E80032002AF7D1BFF35B8F204688
:10B07000BDE8F84000F064BF1F27C8E734491CF062
:10B080009FF8203105F121001CF09AF8E3E7BFF3A7
:10B090005B8F3368BFF35B8F9B0750D529492C48E2
:10B0A0001BF09EFD002811DBBFF35B8F2649336840
:10B0B0002648BFF35B8F13F0040F01F12002214BF0
:10B0C00018BF014610461AF01BFF04464FF0FF322E
:10B0D0004FF0FF33012000F0EBFA00F10C070221E2
:10B0E000054638461FF058F93E230370222343706B
:10B0F000012138461FF050F90923037021213846F9
:10B100001FF04AF9034601309CB91F221A70FF2133
:10B11000202220F08DFCBFF35B8F56E8003F23F028
:10B12000020346E80032002AF7D1BFF35B8F2846BE
:10B130009EE7002206491A701CF042F8EBE7F8BDC2
:10B14000D8200020DCC70400E94300206BE30400A2
:10B150000944002070B5214CBFF35B8F2368BFF317
:10B160005B8FDA0706460D4601D50C2070BD01291C
:10B1700031D8BFF35B8F54E8003F43F0020244E84C
:10B1800000210029F7D1BFF35B8F9B07EDD4144852
:10B1900031461CF015F8134806F120011CF010F898
:10B1A000BFF35B8F75B154E8003F43F0040344E8FC
:10B1B0000032002AF7D1BFF35B8F0B4800F036FA5C
:10B1C0000020D3E754E8003F23F0040344E80032B2
:10B1D000002AF0D0F6E71220C8E700BFD8200020F0
:10B1E0000944002029440020C803002070B5067ED1
:10B1F000044676B9C3681D8842F22602954245D0BE
:10B200000FD842F2010295424FD042F225039D42EF
:10B2100013D02A4BD3F85C3120465B69BDE87040FF
:10B22000184742F25E039D42F3D103210C301FF018
:10B23000D2F8E06890F840102EE003210C301FF0A7
:10B24000CAF8204613F07AFEBFF35B8F1C4B1A68D6
:10B25000BFF35B8F920707D50C26314642F22500DB
:10B260001BF08AFF002070BDBFF35B8F53E8002FF7
:10B2700042F0010143E800100028F7D1BFF35B8FD3
:10B28000D307E9D40F4800F0D1F9E6E703210C30E9
:10B290001FF0A1F8E0683146FFF75CFF0646204644
:10B2A00013F04CFE31462846DAE7DA7802F07F02E6
:10B2B000DA701A7922F001021A71AAE70000002060
:10B2C000D8200020C80300202DE9F341254CBFF30E
:10B2D0005B8F1F462368BFF35B8F1646DA07054670
:10B2E0002BD520B96FF0010002B0BDE8F08101A9B3
:10B2F0001AF096FC1C4980460246284620F043FD81
:10B30000E8B9BFF35B8F2368BFF35B8FC3F3C0085B
:10B310001B0712D4A4F1D405072229463846B047AA
:10B32000062895BF44F8D48C0723C5F80380B0FBEA
:10B33000F3F094BF85F80780E8710020D4E7284631
:10B340000A49424620F01FFD05460028CAD11022B6
:10B3500004F18C013846B0470028EEDB044484F841
:10B360008C50EAE7D40000206AE104008BE304007B
:10B370002DE9F04188B09C79DDF838805D791E793F
:10B38000DF7893F802C093F801E01B78B8F1000F62
:10B390000ED0CDE90638CDE904CE1346CDE90267DB
:10B3A000CDE90045084A19F0F1F808B0BDE8F08190
:10B3B000CDE905E3CDE9037C1346CDE90156034A07
:10B3C000009419F0E3F8F0E790E30400B4E304001C
:10B3D00070B504468CB01E461546A2B129B10A4686
:10B3E00002A8042119F032FD02A900912B46224641
:10B3F000242103A8FFF7BCFF109A314603A8FEF7EB
:10B400003BFE0CB070BD0346044A242103A819F08A
:10B41000BDF80028F0DA6FF01500F2E7D5E304007C
:10B4200007B5064B0648DA79C2EBC2020092002249
:10B430001146FFF7CDFF03B05DF804FB00000020CC
:10B440006AE1040030B504468DB0154692B129B1C9
:10B450000A4602A8042119F0F9FC02A900912B4622
:10B460002246242103A8FFF783FF03A81AF0B0FBAC
:10B470000DB030BD0346054A242103A819F086F813
:10B480000028F2DA6FF01500F2E700BFD5E3040000
:10B4900007B5009313460A4601460348FFF798FF95
:10B4A00003B05DF804FB00BFA7E504000A460146AF
:10B4B0000148FFF7C7BF00BFA7E5040007B5009329
:10B4C00013460A4601460348FFF782FF03B05DF8C2
:10B4D00004FB00BFA1E5040007B5009313460A462C
:10B4E00001460348FFF774FF03B05DF804FB00BF9B
:10B4F00092E5040007B50022034600910348114677
:10B50000FFF766FF03B05DF804FB00BF99E5040098
:10B5100007B500220346009103481146FFF758FF84
:10B5200003B05DF804FB00BF8BE3040008B50248DC
:10B5300018F074F9002008BDD803002070B51D4C28
:10B54000BFF35B8F2368BFF35B8F13F0010F2546BA
:10B5500022D094F88C30A4F1D40613B9164800F028
:10B5600001FEF379D3B1BFF35B8F2368BFF35B8F29
:10B570005A0701D400F07AFDBFF35B8F55E8003F16
:10B5800023F4803245E800210029F7D1BFF35B8F17
:10B59000DB0301D5FFF7CAFF002009E001F03AF80C
:10B5A00030B9F379002BDED101F078F80028DAD039
:10B5B00070BD00BFD40000203BE3040007B500933A
:10B5C00013460A4601460348FFF702FF03B05DF841
:10B5D00004FB00BFE6E504000A4601460148FFF708
:10B5E00031BF00BFE6E5040030B50A4D0A4B85B017
:10B5F00000242846029303941FF0C3FE02AB00937D
:10B60000284606490A234FF4A36218F00DF9204694
:10B6100005B030BD08110020DEE30400A04A002080
:10B620000146014818F038B90811002001460148C8
:10B630001FF096BE081100200378012B30B513D0FF
:10B64000022B27D07BB9194B0A4603F1100453F89B
:10B65000045B42F8045BA342F9D11B781370438862
:10B660004B731B0A8B7330BD104B0A4603F1100459
:10B6700053F8045B42F8045BA342F9D11B781370C2
:10B6800043684B73C3F307221B0CCB731B0A8A73EB
:10B690000B74E8E700F1100350F8042B41F8042B79
:10B6A0009842F9D103780B70DDE700BFE7E30400AF
:10B6B00038B5054605481EF030FE044620B100218D
:10B6C0000C301EF065FE2576204638BD500E002059
:10B6D00070B502460D48BFF35B8F0B46002150E862
:10B6E000004F40E80015002DF9D1BFF35B8F24B95E
:10B6F000BDE870400120FFF7DBBF012304F10C001F
:10B70000237621821EF044FE204670BD40010020B9
:10B7100070B504460F2C0D461046194605D80D2C61
:10B720000DD9BDE87040FFF7D3BF132C07D10C48EB
:10B730001EF0F3FD044638B90024204670BD0246D1
:10B740000B4645B10748F3E700210C301EF020FE00
:10B7500001232376F1E7BDE870400120FFF7A8BF81
:10B760007C0E0020CC0D002038B5C368B3F8014032
:10B770001B786BB90F21204601F060FE054640B9E9
:10B78000084B1A8822B96FEA04506FEA10501880EB
:10B7900038BD012101F096FD2846BDE838401CF077
:10B7A0006ABC00BF4843002010B5084C0146052282
:10B7B00094F86F0001F0C0FF38B994F86F000449A5
:10B7C000BDE81040042201F0B7BF10BD000000200A
:10B7D00051E3040010B5012104460C301EF003FEB5
:10B7E0002146034A0078BDE810400A231BF05DBEE5
:10B7F00014C90400F8B50746907A0E46144613F0B3
:10B80000EFFA284B83424BD1204613F0F1FA264D34
:10B810000C2303FB00504388BB4241D1234FD7F890
:10B82000400120B113F08AFB0023C7F840312046C5
:10B8300013F0DEFA0C2707FB005043689BB196B962
:10B84000204613F0D5FA07FB005001214268D2E9E7
:10B850000003127A03F01F07B9405B09D2B100EB75
:10B8600083001BF089FD204613F0C2FA0C2707FB6A
:10B8700000508368A3B1204613F0BAFA78432E54DF
:10B88000204613F0B5FA07FB0055A868BDE8F8405C
:10B8900017F0C2BEC94300EB83001BF01DFEE2E7B8
:10B8A000F8BD00BF240E0020DC2000200000002096
:10B8B00038B5042104460C301EF095FD457801781A
:10B8C00040882246FFF796FF25B10348BDE838407F
:10B8D00017F0A2BE38BD00BF2801002038B50321F3
:10B8E00004460C301EF07FFDE36805781978B0F847
:10B8F00001002246FFF77EFF25B10348BDE838402E
:10B9000017F08ABE38BD00BF280100202DE9F0479E
:10B910003C4FDFF80C8107F11409FB6848466FF3D0
:10B920009433FB6001F084FC451C36484FF0FF3235
:10B930004FF0FF33294618F07FFD60B1324933489C
:10B9400040F6E523424619F019FE404080F3118885
:10B950004FF0030002DF2B4E15B918F041FADCE777
:10B96000F368C3F38633042B42D1337B002B42D1DF
:10B970002748002200231EF0D5FC044660B9254963
:10B98000224840F67723424619F0F8FD404080F304
:10B9900011884FF0030002DFDFF888A01E484FF047
:10B9A000FF324FF0FF3317F05DFEDAF8400120B1AF
:10B9B00013F0C4FA0023CAF8403120461EF0B6FC4A
:10B9C000CAF840012046FFF711FC88B1124817F071
:10B9D00023FE204613F00CFA104B0C2202FB003021
:10B9E0001F2140882246FFF705FF204613F0A6FAE4
:10B9F0001436013DB0E7012BFAD13069383801F037
:10BA00004FFFF5E7E80300202CE4040035E40400D0
:10BA10004401002052E4040028010020DC20002022
:10BA2000F8E304000000002010B5C1E900239DF8F0
:10BA300008300B720C4613F0DBF9034B0C2202FBAF
:10BA400000335C6010BD00BFDC2000202DE9F04712
:10BA50004FF0FF324FF0FF3306461748174D0F46A1
:10BA60001EF05BFC044600F10C0A00214FF00008B8
:10BA700050461EF08DFC84F81880204613F0B8F96B
:10BA80004FF00C0909FB00504680204613F0B0F936
:10BA900009FB0050C0F80880204613F0A9F909FB03
:10BAA000005503215046C5F804801EF075FC068041
:10BAB00087702046BDE8F087240E0020DC2000209F
:10BAC00038B505460C4619B9FFF7C0FF044698B1D2
:10BAD00040F635439D4209D12046FFF787FB0546D6
