:020000022000DC
:1060000000AA0020D9E1020039F70400ADE1020046
:10601000ADE10200ADE10200ADE1020000000000D0
:10602000000000000000000000000000FDE202008F
:10603000ADE102000000000069E20200ADE10200F3
:106040001DE50200093104001DE502001DE5020006
:106050001DE502001DE502001DE502001DE5020030
:106060001DE502001DE502001DE502001DE5020020
:106070001DE502001DE502001DE502001DE5020010
:106080001DE502001DE502001DE502001DE5020000
:106090001DE502001DE502001DE502001DE50200F0
:1060A0001DE502001DE502001DE502001DE50200E0
:1060B0001DE502001DE502001DE502001DE50200D0
:1060C0001DE502001DE502001DE502001DE50200C0
:1060D0001DE502001DE502001DE502001DE50200B0
:1060E0001DE502001DE502001DE502001DE50200A0
:1060F0001DE502001DE502001DE502001DE5020090
:106100004FEA4102B2F1E04324BFB3F5001CDCF1D9
:10611000FE5C0DD901F0004C4FEAC0024CEA507011
:10612000B2F1004F40EB830008BF20F00100704740
:1061300011F0804F21D113F13872BCBF01F0004043
:10614000704741F480114FEA5252C2F11802C2F175
:10615000200C10FA0CF320FA02F018BF40F00100F6
:106160004FEAC1234FEAD32303FA0CFC40EA0C00A8
:1061700023FA02F34FEA4303CCE77FEA625307D1E5
:1061800050EA01331EBF4FF0FE4040F4400070471C
:1061900001F0004040F0FE4040F40000704700BFB6
:1061A00053B94AB9002908BF00281CBF4FF0FF317E
:1061B0004FF0FF3000F00CB8ADF1080C6DE904CEE3
:1061C00000F008F8DDF804E0DDE9022304B07047D0
:1061D000704700BF2DE9F04786468C460846089E6A
:1061E000154674461946002B40F0C2808542B2FA2B
:1061F00082F245D94AB1C2F1200300FA02FC2EFA1C
:1062000003F3954043EA0C0C94404FEA154EA8B2B4
:10621000BCFBFEF8230C0EFB18CC08FB00F943EA8C
:106220000C43994528D9EB1808F1FF3704D299455A
:1062300002D9A8F102072B44A3EB0903A4B2B3FBD4
:10624000FEFC0EFB1C330CFB00F044EA0344A042AE
:1062500014D92C190CF1FF3304D2A04202D9ACF1AD
:1062600002032C44241A43EA07401EB1D440002301
:1062700034607360BDE8F0874746DDE76346F1E7C9
:1062800092BB431B01214FEA154EAFB2B3FBFEFC9C
:10629000200C0EFB1C330CFB07F840EA0343984527
:1062A00062D9EB180CF1FF3004D2984502D9ACF159
:1062B00002002B44A3EB0803A4B2B3FBFEFC0EFBCD
:1062C0001C330CFB07F744EA0344A7424ED92C19B0
:1062D0000CF1FF3304D2A74202D9ACF102032C44E3
:1062E000E41B43EA0040C0E7C2F1200320FA03F1B7
:1062F000954090402EFA03F303434FEA154EAFB298
:10630000B1FBFEFC0EFB1C10190C0CFB07F841EA5C
:106310000041884504FA02F422D969180CF1FF30D3
:1063200004D2884502D9ACF102002944A1EB08014E
:106330009BB2B1FBFEFC0EFB1C110CFB07F743EA02
:1063400001439F420ED9EB180CF1FF3104D29F425A
:1063500002D9ACF102012B44DB1B41EA004192E778
:106360006046E3E76146F7E76046A3E76346B7E7C1
:10637000834206D916B9002108467BE7C6E900E04A
:10638000F9E7B3FA83F78FB9834201D3724508D88E
:10639000BEEB020460EB030301209C461EB9002102
:1063A00068E73846FAE7C6E9004CF8E7C7F1200C81
:1063B000BB4022FA0CF41C432EFA0CF120FA0CF329
:1063C000B84001434FEA14490EFA07F5B3FBF9F858
:1063D0001FFA84FE09FB18300B0C08FB0EFA43EA87
:1063E00000439A4502FA07F240D9E31808F1FF305A
:1063F00004D29A4502D9A8F102002344A3EB0A0370
:1064000089B2B3FBF9F809FB183308FB0EFE41EA29
:1064100003418E452CD9611808F1FF3304D28E4513
:1064200002D9A8F10203214443EA0040A0FB0298EC
:10643000A1EB0E014145CE46434602D306D14D4560
:1064400004D2B9EB020E68EB04030138002EA6D08B
:10645000B5EB0E0261EB030101FA0CFC22FA07F323
:106460004CEA0303F940C6E9003198E74046C5E726
:106470004346D9E710F8012B11F8013B012A28BF48
:106480009A42F7D0D01A7047034611F8012B03F84F
:10649000012B002AF9D17047034613F8012B002A7B
:1064A000FBD1181A01387047F7B5404DD5F85C316B
:1064B000996811F0010124D101AA40F6034009F0C6
:1064C0005BF8044600286DD1019CE3681B78ABB9EA
:1064D0000AF018FBBFF35B8FD5F8D430BFF35B8FA6
:1064E00005F1D40203F00903BFF35B8F52E8001FEC
:1064F00042E800300028F9D1BFF35B8F204620F03E
:10650000F3F801AA002141F2030009F035F804462E
:10651000002847D1019B264EDA68D2F80100D2F854
:10652000051003C6184620F0DFF8214601AA41F203
:10653000010009F021F80446A0BB0198C3685A780D
:1065400085F870205A88A5F872201A7985F871208C
:10655000B3F80720A5F87420B3F80530A5F8763015
:1065600020F0C2F8214601AA41F2020009F004F825
:106570000446B8B9019FFA68531C4132186859683B
:10658000344603C4083393422646F7D1094829F01C
:10659000B0F9384620F0A8F895F87C305B060BD4AB
:1065A0006FF01204204603B0F0BD00BF30000020A1
:1065B000A8000020B000002001AA002142F2030040
:1065C00008F0DAFF04460028ECD1019BB64EDA68E9
:1065D000D2F80100D2F8051003C6184620F084F85E
:1065E000214601AA42F2020008F0C6FF0446002834
:1065F000D8D1019CE368B3F8012091B249B1D978B0
:1066000039B1A5F80421DA78114606F128002EF0F8
:10661000A8F9204620F068F895F87C6016F020066E
:1066200018D1022140F66D4008F04AFF04460028C8
:1066300000F0CC8002210C302DF044FA01230370CD
:1066400046702146324640F66D4008F095FF0446FC
:106650000028A7D195F89C301F0712D501AA002168
:1066600042F21C0008F088FF044600289AD10198E5
:10667000C368D3F80120D3F80530C5E9382320F0EA
:1066800033F895F8D8309E0624D50DF102016846FE
:1066900029F050FC0446002884D1042142F2240051
:1066A00008F00EFF0646002800F0908004210C3010
:1066B0002DF008FABDF800300380BDF802304380A9
:1066C0002246314642F2240008F056FF04460028D4
:1066D0007FF468AF95F8D8305C0610D501AA002188
:1066E00042F22A0008F048FF044600287FF45AAF1F
:1066F0000198C3685B7885F820311FF0F5FF082109
:1067000042F2010008F0DCFE044600285ED00821B9
:106710000C302DF0D7F995F8D81011F0400F024643
:1067200040F2022308BF032388074CBF43F02C002C
:1067300043F00C0095F8D9308F0648BF40F0400078
:1067400013F0090F95F8A23018BF40F4006003F071
:106750000603CE0748BF40F01000062B08BF40F4E8
:10676000C070002129F057FA2146002242F20100B0
:1067700008F002FF044600287FF414AF95F87C303F
:10678000B5F80411980624D4C9B901AA41F205004C
:1067900008F0F2FE044600287FF404AFB5F8043197
:1067A000019C4BB9E368B3F80120A5F804219A884D
:1067B0003E4811462EF0D5F820461FF095FF0821DF
:1067C00040F6014008F07CFE044638B96FF06804DA
:1067D000E8E60029F3D16FF00404E3E608210C3069
:1067E0002DF070F995F8D830D907024653BF4FF015
:1067F00000512BA1D1E900012D4829F00CFA2146C6
:10680000002240F6014008F0B7FE044600287FF45D
:10681000C9AE014601AA4FF6014008F0ADFE04469C
:1068200020BB01981FF060FF214601AA4FF60240ED
:1068300008F0A2FE0446C8B90198C368B3F8013055
:10684000A5F8C1301FF050FF95F8C1305B070DD59A
:1068500001AA21464FF6034008F08EFE30B9019898
:10686000C3685B7885F8C0301FF03EFF29F0DBFD80
:10687000044600287FF496AE0BF070FB0446002817
:106880007FF490AEEB79002B3FF48CAE08210948E1
:1068900029F027F909F00CFA84E600BFAFF3008075
:1068A00090880002008000200801002038010020AC
:1068B00010880002040100202DE9F843D0E90C35CE
:1068C000D0F82C805C193034A0450F46164619D8F4
:1068D0001D4DA3FB05011AA3D3E90023FFF760FCBC
:1068E0000346A4EB0800A0FB050123F07F4414A39A
:1068F000D3E90023FFF754FC20F07F403C60306078
:10690000BDE8F883DFF840900DA3D3E90023A8FB8E
:106910000901FFF745FC044605F1300008A3D3E95F
:106920000023A0FB0901FFF73BFC24F07F4420F08B
:106930007F403C603060BDE8F88300BFAFF300806B
:106940008D49FD1A0700000000CA9A3B00000000B4
:106950009FED0D7B124B134A1348144910B483ED7D
:10696000007B9FED0B7B82ED007B9FED0B7B104B43
:106970004FF0FF34002281ED007B04601A605DF867
:10698000044B12F079BB00BFFFFFFFFFFF1F0000A9
:1069900000000000000000001F00000000000000D8
:1069A000B0010020A82B0020C4550020A801002021
:1069B000BC55002000000000002800F05F812DE998
:1069C000F04FB54C94F86A2012F001058DB040F0FC
:1069D000A78194F82500FF2300F0030084F82630F7
:1069E0001BF072FE94F86A00420727D494F829201D
:1069F00094F8353004EB820204EB8303D66AD3F8B3
:106A0000388086B1A448314614F0BAFA33785B0670
:106A100005D506210FF060FA002800F083819E481A
:106A2000414614F0ADFA337813F00E0F40F0B78002
:106A3000236A93B10C200DB0BDE8F08F2A4604F113
:106A40006B01C0F3C0001BF0DBFFFF2884F82600B9
:106A5000CCD028461BF07EFEC8E711F037FC8146FB
:106A6000002800F0718111F03DFC8246002800F002
:106A7000688114F0B3FE0546002800F06781D0F865
:106A800088004FF6FF732B8505F11C0B002800F0E2
:106A90004F8105F1780105F17C020FF029FAB5F874
:106AA00076307E4A23F4EF6323F0070343F48873C0
:106AB00043F00103A5F876301346D2F80120C5F85B
:106AC0009B21C5F8A12113F8012B9B88A5F89F31C4
:106AD000A5F8A53195F89A3102F0010262F300039E
:106AE00062F3410385F89A3195F8393003F03F039A
:106AF00063F07F0385F8393095F88E3023F0070373
:106B000085F88E3095F83C3023F00703002785F890
:106B10003C304FF4C023C5F888312846C5E91277C8
:106B2000C5F88870A5F88C706F86C5F82E7085F84A
:106B30003B702F65A5F88E71A5F8847117F01CFCC9
:106B400085F85071C5F8549115F006F995F894310F
:106B500060F3020385F8943115F004F995F8943147
:106B600060F3C50385F8943195F8803167F34103EC
:106B700085F880310121284615F054FD05F1D40037
:106B800017F082F9C4E9189AC4F820B0C5E905776E
:106B90002F70ED611DF066F8002840F0C58094F874
:106BA00024300121C3F342030DF12B008DF82B306B
:106BB0000FF03CFB0246002862D098F801103046E6
:106BC00013F0A0FF31233649A360364BB4F8687048
:106BD000A0FB01010025C01841F107012CA3D3E956
:106BE0000023C4E9055525706560E560FFF7D8FA14
:106BF000206110F04FFE00F109083FB9357805F02B
:106C00000F05A5F10105B5FA85F56D0994F8240085
:106C1000236965F3000010F0010584F824004BD0CF
:106C2000214A0992002010600225204A204F049337
:106C30000BAE019305920321CDE902000694434671
:106C40000090089607972A460B9510F0C1FC314634
:106C500011F002FCA0B9174905914AF2D83300930C
:106C6000CDE90300CDE90100079708960694434655
:106C7000012203210B9510F077FC43E013F08EBE48
:106C8000236A002B3FF4D6AE13F046FED2E600BFD7
:106C90008D49FD1A070000007C560020218E05005A
:106CA00000CA9A3B8C49FD1A7056002081AB030044
:106CB000217A030095A603002B4A2C48049303F283
:106CC00047130694029591211360A7FB000301FB73
:106CD0000731274B0793274B05934FF6FF73099214
:106CE000022703930BAE1EA3D3E900230B9708964C
:106CF000FFF756FA4346CDE900503A4628460321AD
:106D000010F066FC314611F0A7FB0028B8D194F8CA
:106D10006A3043F0010384F86A3014F053FB60B129
:106D2000002088E6122086E613F0F6FD032082E6B6
:106D300005F18000C5F88800ABE601201BF0A6FC39
:106D4000EEE7484611F0C8FA072074E6504611F005
:106D5000CFFA484611F0C0FAF6E700BFAFF3008063
:106D60008D49FD1A0700000070560020002AE784B4
:106D7000217A030081AB030070B590F824308AB00B
:106D8000C3F342030D46044601210DF123001646CC
:106D90008DF823300FF04AFA71780246284613F036
:106DA000B1FE1F491F4AA0FB0131981841F10701AC
:106DB00019A3D3E90023FFF7F3F9236998420546A5
:106DC00021D21B1A00220192174A0293174BA21AD2
:106DD000A3FB02320221920900230A4409AE099161
:106DE00013490591CDE903330321D2B206960093EE
:106DF000184610F04DFC314611F02EFB38B92561D4
:106E000000200AB070BDFBD9C21A0023DBE70C20BA
:106E10000AB070BDAFF300808D49FD1A0700000075
:106E200000CA9A3B8C49FD1A7C56002089888888C4
:106E3000217A03000000000038B5194C9DF810E0DD
:106E400094F848C01CF0010523D163F3420C4001C3
:106E500094F83230A1874FEACE0E0EF0180E00F0F3
:106E6000200040EA0E0023F0380303430D4884F865
:106E700032309121A2FB000384F848C001FB0231AB
:106E800005A3D3E90023FFF78BF9C4E910002846D6
:106E900038BD0C25284638BD8D49FD1A0700000075
:106EA000B02B0020002AE78410B504469DF80800A6
:106EB00022844FEA411CC000A17D00F018000CF0B4
:106EC000200C4CEA000C0C4821F038014CEA010C73
:106ED000A3FB0002912184F816C001FB032104A347
:106EE000D3E90023FFF75CF9606210BDAFF30080C7
:106EF0008D49FD1A07000000002AE7840000000009
:106F00002DE9F047044600F1350190F8480094F867
:106F100032305B4DDFF88081C0F3400060F38613B0
:106F20008CB084F8323010F007FD94F83220A38F33
:106F30005448E46102F07902002784F8322091215C
:106F4000A3FB0002C4E90577277001FB03214AA3D4
:106F5000D3E90023FFF724F9651B626C4A4B676095
:106F6000AD08A3FB053502F10903984298BF3A46E4
:106F7000C5F3470522644FF031028CBF1946014624
:106F8000A26005EB4502E760216148F82210064641
:106F900010F080FC236A00F109074FEA450A002B34
:106FA0004AD00DF12C09AA4408EB8A030993CDF8C5
:106FB00020900694A38F33484FF00008A3FB0002F3
:106FC000CDF80C80912101FB0321236904932F4B01
:106FD00007932F4B05934FF0020A27A3D3E9002311
:106FE000CDF82CA0FFF7DCF8104619464FF47A7262
:106FF0000023FFF7D5F80435EDB2CDE90160032198
:107000003B462A46CDF80080404610F0E1FA49465A
:1070100011F022FA60B994F8483043F0010384F883
:10702000483013F083FF08B300200CB0BDE8F087B0
:107030000C200CB0BDE8F0870DF12C09CDE90A3326
:1070400021694B460AAA032001F096F90028AAD12B
:107050000B99104808A3D3E90023A1FB0001FFF717
:107060009FF80A9B20F07F471F449CE750461BF087
:107070000DFBD9E7AFF300808D49FD1A0700000032
:10708000B02B0020002AE784BD86F21A217A030083
:10709000B5B1030000CA9A3B0C5700200000000065
:1070A0002DE9F04F05468BB08B46012002219A4610
:1070B00014461FF07BF800220221814601200EF0C9
:1070C00067FF3B494FF4D47228460EF0F1FE461D8F
:1070D000F6B2384B009532460121002010F0F0FA4C
:1070E00010F0FD0F0CD0344A3449354840F62F03D8
:1070F00026F085FD404080F311884FF0030002DF49
:10710000304BA4FB0348204627A3D3E90023414684
:10711000FFF746F82C4B20F07F47A7FB03310722EF
:10712000E01A02FB071168EB01014FF47A720023A9
:10713000FFF736F8CDE90170CDF800B00895069557
:10714000296995F9394021480491214931EA2401FE
:1071500028BF014605911F4C07944FF6FE7103911D
:10716000534632460121002010F0FEF910F0FD0FC9
:107170000CD0114A1149124840F6440326F03FFD55
:10718000404080F311884FF0030002DFB9F1000F97
:1071900002D10BB0BDE8F08F0122022110460BB0E6
:1071A000BDE8F04F0EF0F4BE8D49FD1A0700000057
:1071B000002C002085B70300EC760500B0770500B1
:1071C0008871050000CA9A3B8D49FD1AFD1704001D
:1071D000A51904002DB703002DE9F043C469228DE1
:1071E0004FF6FF739A428DB000F088800546204626
:1071F00017F0BAFB95F82830012B00F00F81022B15
:1072000000F00281002B00F0E18094F85071002F13
:1072100040F0FD80E68DB4F83080002E71D1AA8C4C
:1072200008F101060023CDE90A33B6B2002A70D076
:1072300094F93930002BC0F248810023A4F88A3138
:1072400095F82630D90740F1EF800023A4F88E315D
:107250000DF127023146204617F0CAF8743000F0CD
:107260004681B4F888312BB1B34240F20D819B1BAB
:10727000A4F88831B4F884312BB1B34240F2FB80DA
:107280009B1BA4F88431258E17B9A84500F0EA802D
:107290000135ADB294F8D13013F001065AD1DDE9D1
:1072A0000A130A46002B40F0ED80002900F0DC8034
:1072B0001E461846228DE4690694CDE9035705322F
:1072C000A74D0290CDE90016D2B20121002005950C
:1072D00010F0DEF910F0FD0F10D011F0E7F8844245
:1072E0000CD0A04AA049A14840F2155326F087FCD3
:1072F000404080F311884FF0030002DF0DB0BDE87D
:10730000F083AA8C46440023CDE90A33B6B2002AA2
:107310008ED195F82630DA0797D4B4F88A31002B4D
:1073200000F08280B34240F2FA809B1BA4F88A31BD
:10733000B4F88E31002B8BD09E4280F0DE809B1BF8
:107340009BB20022062BA4F88E31228600F2AC807C
:1073500001277DE794F939206FF30003002A84F8B0
:10736000D13077DB94F87600C0F3C00100F007005D
:107370001CF0DEFAB4F86E20B4F86C30134403F25B
:10738000D51303447A4A7B480721E3FB00211046CA
:1073900071A3D3E90023FEF703FFDDE90A1320F010
:1073A0007F4220692261904235BF161A801A002060
:1073B00000260A46002B7FF47DAF56EA010C7FF4CD
:1073C00079AF002850D019461E4673E794F88E30E6
:1073D00003F01803182B7FF418AFA18DB4F88621A1
:1073E0008B1D9A42C4BF931F5B1AB4F88211CCBFA5
:1073F0009BB21346994200F08C80A4F88231A4F825
:107400008431A4F8882100E73D2784F8507139467B
:1074100020460DB0BDE8F04314F0C2BD0023A4F82F
:107420008831A4F88431F0E6B4F88E31002B83D192
:10743000628DB4F88C3140F2E24101FB02F242F27B
:10744000107101FB0323013BB3FBF2F39BB2A4F8E1
:107450008E316FE794F87700012100F007001CF0EF
:1074600069FA87E73D4615E7002D4BD00026114607
:10747000304633461EE70023A4F88431204617F037
:1074800057F800E7304615E710F078FF014600286E
:107490003BD00023A4F88831238DC3801B230371C4
:1074A000006810F035FFE5E694F939309342BFF6F5
:1074B000CFAEB8F1000F7FF44BAFD4F878315A0853
:1074C000DB0743D4C4F87821C2E628460AAA0BA9F0
:1074D00004F1D409FFF7F0F9484616F017FD18B388
:1074E000484616F013FD18B300232386A5E69DF841
:1074F0002710204614F054FD00E70821204614F020
:107500004FFDFBE6002FB1D1F8E60123A4F8883146
:10751000B0E6B4F8881100297FF477AE6FE73E211A
:10752000204614F03DFDE9E6FF2014F0F1FCD7E71A
:107530000246D4E91E010EF0F3FC0028D4D194F8E1
:107540003C30580744BFA38D238676E642F00042C4
:10755000C4F87821FCE600BF8D49FD1A0700000041
:10756000EDB60300EC760500FC7705008871050098
:107570008C49FD1A00CA9A3B2DE9F04F87B0CDE93E
:107580000432BDF8442003780292BDF84820BDF8CB
:107590004080BDF84C50468EB0F82E90B0F814B133
:1075A000019104460392002B00F0CB80013EB6B25D
:1075B000A368D4F80C71721B92B2002B009209DA06
:1075C000E168626823F0004391422CBF7F18BF1826
:1075D000A360FF1A009A638D13FB02F39BB2B3FB07
:1075E000F8F218FB02F080B283421FFA82FA80F0B0
:1075F0009780C01A40F2E2425D4902FB00F0A0FB16
:10760000010159A3D3E90023FEF7CAFD20F07F4012
:107610000744D94494F839304D44AD1B554440F2E9
:10762000E246DB09E58506FB08F500F08E80226C5A
:107630000099A36CDFF838B102FB1133A3641CF08E
:1076400063FB814694F87401C0F342001CF05EFBBA
:10765000059B814406FB03F305FB09F9236509F546
:107660007429444B09F23F29A3FB09394FEA994396
:1076700003FB0AF02364A5EB0309A36C6A08034427
:10768000963A934228BF1346C4E911230023C4F855
:107690007C31A0FB0B0134A3D3E90023FEF780FD6E
:1076A000049B3F1A3448A0FB0330800A06FB00F01D
:1076B0002DA3D3E90023A0FB0B01FEF771FD20F001
:1076C0007F46029BA385039BA4F88C312946204664
:1076D000A4F82A8016F0C8FE284BA18D2B44881DE3
:1076E000B3FBF5F39AB29042A4F8862102D2521A63
:1076F000063A92B2019BA4F8822113B10023A4F8A8
:107700008E313B464A4631462046FFF7C9FC94F885
:10771000803143F0010384F8803107B0BDE8F08F79
:1077200008FB1231124840F2E24389B203FB01F137
:10773000A1FB00010CA3D3E90023FEF731FD3F1AA2
:1077400067E74E445E44B6B232E7049B0848A3FBA9
:10775000000105A3D3E90023FEF722FD20F07F46B8
:10776000A9460136ADE700BF8D49FD1A07000000AC
:1077700000CA9A3B83DE1B435917B7D17FC3C901A7
:107780002DE9F04F04460B68077F1668D3F800A078
:10779000638CD0F81E0095B015464A7CADF84C308D
:1077A000FF2AC7F3801389460D9212908DF83F305F
:1077B00072D198461A4612AB93E803000DF1400BC4
:1077C0001090ADF84410F8090AF1710127680A9188
:1077D0005B460C900B9714F0CBFA0A99002843D122
:1077E00096F89A310C9A0A9068F3410362F3000309
:1077F00086F89A311098BBF80430C6F8A101A6F8B3
:10780000A531DAF87130C6F89B318B88A6F89F3124
:10781000E38D94F83010A9722B81D4F82A306B6074
:10782000D4F83A30AB6105F1180094F83E3003719A
:1078300005210EF0FBFC6B7F00F03F0060F30503B9
:107840006B7794F83F30C3F30401A977A18EE981E7
:10785000012803F01F0389B206D91B3303F01F036D
:107860000B2B01D80A9A59BB0022CAF8142095F8AC
:1078700020300B9862F3000385F82030E56801267C
:107880002146267110F03AFD28682E71294610F025
:107890003FFD15B0BDE8F08F0DF1400B10460DF126
:1078A0003F015A461AF068FC9DF83F80277F08F197
:1078B00002085FFA88F88DF83F8008F0010282E73D
:1078C000D9F800305A60E38E2B82EB8940F2E2480F
:1078D00008FB03F71146638E0A93304616F0D8FD75
:1078E00094F83F3096F874215B0963F3430286F8FD
:1078F00074211CF009FA0C9096F87401C0F3420050
:107900001CF004FA0C9B184407FB00F0BA4B00F57E
:10791000742000F23F20A3FB00307B08800C963BD4
:107920006862AB6294F8313008FB03F3AB63238FDA
:10793000A6F88C313946304616F096FDAF4BB04A6A
:10794000C6F890213B44B3FBF7F39AB2A6F8862120
:10795000298A881D824204DDC1F57F41FA310A443B
:1079600092B2A6F882216B68C6F87831234613F8E4
:107970001C2FC2F34018DA0700F104814FF4807322
:10798000A3839AF826001BF051F904F12B03002879
:1079900000F0EE80626AC4F82B20228D9A800D9B45
:1079A000FF2B00F0E980BDF84C301298A4F8293084
:1079B000C4F82500BBF80430A4F8233010989DF8D3
:1079C0003F30C4F81F00A377EB8963862B8AA38618
:1079D000B6F88C31E38696F87431C3F3420384F829
:1079E0003830304613F006FFA881E08021460B981E
:1079F000D9F8044010F082FCAB89E3801C23D4F852
:107A000000B02371B8F1000F40F0D18084F81C80E1
:107A10002146584610F07CFC95F85B00B5F8508084
:107A2000B5F85240012100F007001BF083FF4444E9
:107A300004F2D514DFF8D481044483467148072149
:107A4000E4FB080131230024B360746068A3D3E928
:107A50000023F460FEF7A4FB20F07F4030616D6AE4
:107A60000A9A7D1BD9F80C7040F2E24303FB0277BF
:107A70000221224601200EF08BFA504613F03CFA08
:107A800007F2B2470246A7EB0B07A7FB0801174610
:107A900057A3D3E90023FEF783FBCDF804A0D9F860
:107AA00008305949009120F07F48BA1C3A3BD2B2C5
:107AB0002046434401210FF045FE012800F082805A
:107AC0009AF82430DB076AD4304613F093FE4F4B0C
:107AD000A5FB035A044646A3D3E900232846514692
:107AE000FEF75EFBD9F80830494A0792A3F13A093C
:107AF000484B069620F07F47A7FB0331E81A464B18
:107B0000059340F2D113089333694FF0000BCDE990
:107B100003B34FF0070303FB07116AEB01014FF4B6
:107B20007A720023FEF73CFB0534E4B2CDE9017024
:107B3000CDF800804B462246012158460FF014FD37
:107B400010F0FD0F0CD0354A354936484FF4E97333
:107B500026F055F8404080F311884FF0030002DF13
:107B60000122022110460EF013FA15B0BDE8F08F85
:107B7000C4F82B00988012E70022C4F82520A4F84E
:107B8000292017E7254A28492648F82326F037F800
:107B9000404080F311884FF0030002DFEEE600233F
:107BA00001220093184611460FF08AFD8CE76B7F87
:107BB00043F040036B77281D1AF0D6F84FF0010808
:107BC000E88323E710F072FC82453FF479AF134A53
:107BD0001649144840F2792326F011F8404080F30A
:107BE00011884FF0030002DF6AE700BFAFF30080A7
:107BF0008D49FD1A0700000083DE1B437FC3C901C6
:107C0000404B4C008C49FD1AC117040000CA9A3B36
:107C1000911704008D49FD1AFD1704009C7C050096
:107C2000B0770500887105004C740500F87C0500EC
:107C30002DE9F04F8DB01F46BDF860300793CDE9B8
:107C40000501BDF868309DF85C90BDF864B0049300
:107C50000020164613F0C4FB002800F0658109F0EF
:107C60000108044640460FF057FE0390B8F1000F9C
:107C70006DD1169B03993A46404614F079F80028D6
:107C800040F06381236A04F11C020892002B65D046
:107C9000D4F820A0DAF8005007F0010B9AF85A0047
:107CA000C0F3C00100F007001BF042FEBAF852100A
:107CB000BAF8502000F2D5130A441344CC48CD4AF8
:107CC0000721E3FB00211046C7A3D3E90023FEF7F9
:107CD00067FA20F07F40286130461AF017FD94F8CB
:107CE00033306FF3410384F83330FF2384F83430AA
:107CF000002E00F01D81A9F10203012B40F2298121
:107D000094F84810089869F3420184F8481094F8F0
:107D100033106BF30001DDE9052384F83310169965
:107D200009686162169989882185049921860096DF
:107D30000021FFF7B9F860641BF094FF002840F0C1
:107D400013812046FFF7DCF80DB0BDE8F08F062167
:107D50000EF0C2F800288CD11220F5E710F0B6FA28
:107D60000990002800F0738113F038FD05460028C3
:107D700000F06A8120300EF06DFA05F11C0A00282F
:107D800040F01D81032105F124001BF085FC079BB9
:107D9000D5F888006B854FF6FF73A5F82CB02B85BE
:107DA000002800F0198105F17C0205F178010EF040
:107DB0009FF8B5F8763023F4EF6323F0070343F41C
:107DC000887343F00103A5F8763095F88E304FF0B4
:107DD000000B23F0070385F88E300121C5F888B029
:107DE000A5F88CB0284614F01DFCC5F82EB0A5F8F7
:107DF00032B005F1340019F061FF95F8393060F3C5
:107E00000503012185F839300DF12F001BF044FCEA
:107E1000049B9DF82F20A5F88C31774B85F83BB05B
:107E2000A3FB0213DB0803EB4303A2EB830295F8E9
:107E30003930A98DA5F88EB103F03F0385F83930AC
:107E400095F83C30A5F884B1053223F0030385F89A
:107E50003A20079A85F83C3040F2E24B674B0BFB27
:107E600002FB4FF4C0225B44C5F88821881DB3FB98
:107E7000FBF39AB28242A5F8862102DD063A521A35
:107E800092B2A5F88221284616F076FA594628467D
:107E900016F0EAFA099BC5F85431002385F85031F1
:107EA00013F05AFF95F8942160F3020285F89421AB
:107EB00013F058FF95F8942160F3C50285F89421DA
:107EC00095F88021002363F3410285F8802105F1B4
:107ED000D40015F0D9FF95F89A21169907F0010BF7
:107EE0006BF3410285F89A213122AA600023169A89
:107EF0006B60EB601268C5F8A12195F89A2189881A
:107F0000A5F8A51169F30002039985F89A210A687A
:107F1000C5F89B218A88A5F89F21C4F820A0C5E94F
:107F200005332B70ED61B9E60C200DB0BDE8F08F84
:107F30001BF02CF800283FF4DEAE16993846324686
:107F40001AF05EFD84F83400D5E60B200DB0BDE8D4
:107F5000F08F00201AF0FEFB94F8333043F0020358
:107F6000C14684F83330CBE6256AEB6E63B1244A10
:107F70002449254840F21D4325F041FE404080F34E
:107F800011884FF0030002DF05F1600105F15C008C
:107F90000DF0B2FF064600283AD02F68EE66D7F8FB
:107FA0005451002D42D0284610F096F9384613F06F
:107FB0001BFC0023032023620DB0BDE8F08F104AA4
:107FC00012491148C12325F01AFE404080F3118860
:107FD0004FF0030002DFD5E605F18000C5F8880008
:107FE000E1E600BFAFF300808D49FD1A07000000F5
:107FF00000CA9A3B8C49FD1AABAAAAAA7FC3C90141
:10800000287D0500E075050088710500E471050014
:10801000104A1149114840F21F4325F0F0FD40403D
:1080200080F311884FF0030002DFB6E7094A0A49DE
:108030000A4840F2264325F0E2FD404080F31188D3
:108040004FF0030002DFAEE7099810F045F9072072
:108050007AE600BF287D05003C77050088710500A1
:108060002DE9F04F04468DB090F81C80238D406AB6
:10807000ADF82C30E307C8F3C0170E461546C8F319
:1080800040180A9000F10D810023A383B37C707C1B
:1080900013F001031CBFD4F81E30C4F82B3004F1D8
:1080A0002B0214BF638CC4F82B30FF28938004F19B
:1080B000250904F11F0240F0E5800023BDF82C10D3
:1080C0000A98C4F82530A9F80430A777C4F81F002F
:1080D00091803368D3F80090EB8963862B8AA3865E
:1080E000B9F83030E3861BF00DFE84F838002F68B5
:1080F000384613F07FFB0021A881E080384616F057
:10810000C7F9D6F804A02068214610F0F7F8AB892B
:10811000AAF806301C23DAF800408AF80430B8F1D7
:10812000000F40F0CC808AF81C805146204610F0A9
:10813000EFF8BB687A6895F85A00B5F80E80F568D4
:10814000674C934238BF1346C0F3C00103F1090ADC
:1081500000F0070040F2E24303FB08F81BF0E8FBE5
:10816000002202212D1A01200DF012FF484613F0C3
:108170000DF9A5FB044558A3D3E9002383462946FE
:108180002046FEF70DF8CDF80490B36855490091EC
:1081900020F07F490BF10402A3EB0A03D2B24B4457
:1081A000012100200FF0CEFA10F0FD0F0CD04E4A46
:1081B0004E494F4840F23D3325F021FD404080F3C9
:1081C00011884FF0030002DF4FF0000B5B460322E3
:1081D0000121CDF800B058460FF072FA384613F07E
:1081E00009FBB36806463E48A3EB0A0AA8FB000158
:1081F00039A3D3E90023FDF7D3FF19463D4B08937C
:108200003D4B069340F26D33079709933B698046D7
:10821000CDE904B3104600234FF47A72FDF7C0FF96
:10822000364B0722A9FB0331CDE9028002FB09117D
:10823000E01A65EB01014FF47A720023FDF7B0FFFD
:108240000536F6B2CDE90090534632460121584634
:108250000FF0A6F910F0FD0F0CD0234A2349244853
:1082600040F26E3325F0CBFC404080F311884FF094
:10827000030002DF0122022110460DB0BDE8F04FDD
:108280000DF086BE04F11E0119F076FFA37FBDF844
:108290002C200A98C4F825000233A377A9F80420FB
:1082A00017E7114A1649124840F2BD2325F0A7FCF2
:1082B000404080F311884FF0030002DFE4E66B7F5B
:1082C00043F040036B77281D19F04EFD4FF0010875
:1082D000E88328E7AFF300808D49FD1A070000000E
:1082E00000CA9A3B71190400287D0500B07705008B
:1082F0008871050075190400A51904008D49FD1A3F
:108300004C740500000000000538C3B2052B0CD8E2
:1083100070B580B20D4613F075FA044618B190F9A5
:108320003930002B03DA002070BD0020704790F830
:1083300076000F4EC0F3C00100F007001BF0F8FA02
:108340000C4A00F2B5500721E0FB0621104606A3B7
:10835000D3E90023FDF724FF20F07F40286020466A
:1083600070BD00BFAFF300808D49FD1A070000000B
:1083700000CA9A3B8C49FD1A2DE9F04F93B0FF24B7
:108380000B930B1D0A930023CDE90E3305461646C9
:108390008DF837409B464FF0040A1F469946984691
:1083A00010AB0693564B0593564B03930FAB0193BB
:1083B0000EAB0020009302231093049002903346EA
:1083C0000DF1370229460FF001FA022815D0109B53
:1083D000CBB9FF2C26D03368BB4223D0BAF1000FB3
:1083E00040D00AF1FF3AFF245FFA8AFA8DF837404D
:1083F000D6E7294600200FF035FA109B022BF8D063
:10840000109B002BE5D0404A404941484FF4F77398
:1084100025F0F5FB404080F311884FF0030002DFA8
:10842000FF2CD8D19DF83700FF2829D011A9FFF7DC
:108430006BFF0028B4D0FF2C0E9F119B0AD0414641
:10844000384609930FF028FA0A9B03EB0902904281
:10845000099B17D8B8469DF837403768DDF83CB01F
:1084600099469DE72B49284A29484FF4FB7325F08C
:10847000C6FB404080F311884FF0030002DFB0E7F5
:10848000FF2C34D024480721A9FB000301FB09314C
:1084900019A3D3E90023FDF783FE044600B140345D
:1084A0001E4AABF57423A3F51073934216D81A48ED
:1084B0000721A8FB000301FB08310FA3D3E9002328
:1084C000FDF76EFE164BA3FB0B2304EB93440B9BB3
:1084D000044400201C6013B0BDE8F08F0BF1E87B72
:1084E0000BF5D43B08F1FF380BF5A57BDFE76FF008
:1084F000090013B0BDE8F08F00CA9A3B00000000ED
:10850000811C0400851C0400747D0500B87D0500F5
:1085100088710500C07D05008D49FD1ABFBDF07F43
:1085200083DE1B43000000002DE9F043C668476866
:1085300073683D491A68D0F80090A7F57423A3F535
:1085400010738B4283B0804607D907F1E87707F5AF
:10855000D43709F1FF3907F5A57773681169DD890B
:10856000CDF8049006F1100301AA0220FFF704FFE2
:1085700000284ED10199A1EB09031B0237D408460C
:1085800049460FF089F9034628480721A3FB00025A
:1085900001FB032122A3D3E90023FDF701FE346987
:1085A0000444002C346109DB40F2E24305FB03F391
:1085B000A3422FD2E41AA342FCD33461D8F800308E
:1085C0001A48A3EB0903A3FB0002072101FB0321C7
:1085D00013A3D3E90023FDF7E3FD154BA3FB0737F6
:1085E000A0EB97402044306103B0BDE8F0834846DB
:1085F0000FF052F903460D480721A3FB000201FBCF
:10860000032107A3D3E90023FDF7CAFD3469241A27
:10861000C7E73469002CD1D103B0BDE8F08300BFB7
:1086200000CA9A3B00000000BFBDF07F8D49FD1AD3
:1086300083DE1B430000000010B5334C3349002398
:1086400004F1FF3C14F83320072A02EB820E05D810
:1086500011F83E206FF3451201F83E201CF833203C
:108660006FF300020CF833200133082BEAD1284ABB
:10867000284C002313700A7863F300020A7091F803
:10868000282063F3000281F8282091F8502063F33A
:10869000000281F8502091F8782063F3000281F8FD
:1086A000782091F8A02063F3000281F8A02091F8CF
:1086B000C82063F3000281F8C82091F8F02063F32A
:1086C000000281F8F02091F8182163F3000281F88C
:1086D0001821114A9FED0A7B1370104B83ED007B2C
:1086E0000F4B236028B1BDE810400E490E482CF016
:1086F000FFB9BDE810400C482CF008BAAFF3008079
:10870000FFFFFFFFFFFFFFFF4D6400200C63002011
:10871000497700201C620020487700202036002086
:10872000A0BB0D0041290400F0350020000000002E
:108730002DE9F04F8FB00DF137010446DFF8E0A0CE
:10874000DFF8E0800DF136000FF060FE9DF8363066
:108750009DF837B00B930FF09DF8DAF80060A6FB98
:10876000085629A3D3E9002300278146314628462D
:10877000FDF716FDCDE90777069420F07F44DAF87F
:108780000400234B0593A0FB08011FA3D3E900239A
:10879000FDF706FD1F4B20F07F40A4FB03310722AD
:1087A00002FB0411CDE90370E81A66EB01014FF4F6
:1087B0007A720023FDF7F4FC0097CDE901404B46A7
:1087C0000B985A4603210EF0CFFE10F0FD0404D0A2
:1087D0006FF08B000FB0BDE8F08F0F480F4A0023F9
:1087E00022F092FB20B9DAF80C000FB0BDE8F08F50
:1087F0009DF837209DF836000094234603210EF0A3
:108800005FFF6FF07300E5E78D49FD1A0700000078
:10881000913004008D49FD1AC0640020447B0B0098
:10882000D864002000CA9A3B38B50F4D04460FF0BB
:1088300031F8A9680FF030F8696803460B48B3FBBC
:10884000F4F4A1FB00011C4405A3D3E90023FDF7C8
:10885000A7FC20F07F40844294BF0020012038BD57
:108860008D49FD1A07000000D864002000CA9A3B19
:10887000F0B5C468636883B00546002B63D11CF073
:10888000DBFF00201CF0FEFF002108461CF0ECFF7F
:108890000022252108201DF02BF8454B019301A84B
:1088A0001DF00EF8434940F25B601DF0B9F8237AE1
:1088B000C3F3420262F30613204623721BF044FC0A
:1088C0001AF064FB58BB637A9B071FD127682E6898
:1088D00038461AF0CBFF06446A6806F10901012008
:1088E0001DF0F8F91DF0E4FA204612F011FB811C8E
:1088F0003246C9B238461AF0C7FF054670BB20465B
:108900001AF04EFF88B9002003B0F0BD012019F025
:10891000B1FE4178821C00781DF07CF9D6E7607AC0
:1089200010F0030018BF0120F1E7234A234924482F
:1089300040F22C4325F063F9404080F311884FF05A
:10894000030002DFDFE793F820309A0797D01D4835
:1089500021461CF02FFF1DF01DF8D4E7164A1A49D6
:10896000174840F2144325F04AF9184B0721A5FB9C
:10897000030301FB05310CA3D3E90023FDF710FC31
:1089800013490246134825F03AF9404080F3118814
:108990004FF0030002DF104821461CF00BFF1CF0D3
:1089A000F9FF6FF08B00AFE700CA9A3B00000000B0
:1089B000D6BE898E555555006C810500F4720500B0
:1089C00088710500113A0400087205008D49FD1AEE
:1089D0001C820500F0810500193D04000000000024
:1089E0002DE9F041C46894F91630002B8CB0C0F228
:1089F000FF80636805460E46002B40F0EE80A37DA5
:108A00006FF30003A3751CF017FF00201CF03AFF62
:108A1000002108461CF028FF0022252108201CF018
:108A200067FF01200FF0F4FD0746002800F0C78023
:108A300007F11C001CF086FF874B0B930BA81CF062
:108A40003FFF864940F25B601CF0EAFFA07DC0F367
:108A5000410025301AF02AFF814821461CF0AAFE69
:108A6000A37D9B0603D46368002B00F0A5809620AD
:108A70001DF024F900231A46194618461DF036F851
:108A80001AF084FA002838D1A37D13F0180F59D1B9
:108A9000D4F800802F6840461AF0E8FE07446A6860
:108AA00007F1090100201DF015F91DF001FA1DF074
:108AB0008DF8204612F078FC011DC9B240463A46B6
:108AC0001AF0E2FE8046002840F0998016B9636AE9
:108AD000002B4ED1636843B1624B0122022100207A
:108AE0009D600DF08BFA002835D120461AF058FE13
:108AF000D0B900200CB0BDE8F081A07DC0F3C0006B
:108B000019F0B8FD07460DF12B001AF0B7F8797887
:108B10008046BA1C38781DF07DF89DF82B000022A5
:108B200041461DF095FAB3E74F4A5049504840F28C
:108B30000B2325F064F8404080F311884FF00300C8
:108B400002DFD6E7012019F095FD4178821C0078FC
:108B50001DF060F89CE7444A4649454840F2062328
:108B600025F04DF8404080F311884FF0030002DFFC
:108B7000BBE7414A0792414A059240F2F312009343
:108B80000892CDE90366CDE9016606943B4631467D
:108B900003220EF0E9FC10F0FD0F9BD0324A384959
:108BA00033484FF4FA7325F02AF8404080F31188D7
:108BB0004FF0030002DF8DE71CF0F8FF60E72A4A60
:108BC00030492B484FF4C57325F019F8404080F325
:108BD00011884FF0030002DF2AE7636893F8203022
:108BE000D90705D4636893F820309A077FF507AF5B
:108BF000254821461CF0DEFD1CF0CCFE79E71A4A20
:108C000022491B4840F2E51324F0F9FF204B0721CD
:108C1000A8FB030301FB08310DA3D3E90023FDF7F3
:108C2000BFFA1C4902461C4824F0E9FF404080F38B
:108C300011884FF0030002DF184821461CF0BAFDEE
:108C40001CF0A8FE6FF08B0054E700BFAFF300806C
:108C500000CA9A3B00000000D6BE898E55555500CB
:108C6000418D0200380E002028820500F4720500B4
:108C700088710500FC720500914804003149040028
:108C80002C750500B8810500113A04000872050032
:108C90008D49FD1A74820500F08105006D470400BE
:108CA00038B504461BF012FDA37DA27DC3F341033A
:108CB000013303F00303032B08BF002363F34202D5
:108CC00014BF03F125002520A2751AF0EFFD63689B
:108CD0000BB123694BB90EF0DDFDC11C00201DF066
:108CE0006DF8BDE838401DF0E3B81DF095F8054675
:108CF0000EF0D0FDC11C00201DF060F81DF0D8F86A
:108D00001DF08AF829460EF0C7FD0B4A03460721DD
:108D1000A0FB020201FB032105A3D3E90023FDF719
:108D20003FFA23691B1A236138BD00BFAFF30080EF
:108D300000CA9A3B000000008D49FD1A00000000A7
:108D40002DE9F0478AB004461CF056FEC0B250B977
:108D50001AF004FEC44821461CF02CFD0AB0BDE800
:108D6000F0471CF017BE1CF067FE05461CF086FF9E
:108D700007461CF08DFF81461DF0C4F906461DF024
:108D8000A3F982461CF03CFFEDB280461CF01CFFAC
:108D90001AF0E4FD002DDDD001200FF039FC05466E
:108DA000002800F04D8117F0FF07F6B240F0E38095
:108DB000002E40F0DA804FF0FF093A464B4631462C
:108DC00020461BF0A9FE0028C4D02A7F616800233A
:108DD0008DF823305FFA88F702F00F03002900F0C6
:108DE000EC80616891F82010880700F1E680072B7D
:108DF000B0D0A17D090740F14381002B40F0C48031
:108E00006B7F063B1F2BA5D804200FF001FC002828
:108E1000A0D01DF055F8636A074643B9238C40F291
:108E2000712202FB03F3B0FBF3F203FB120723688A
:108E30001A698E4B0721A2FB030301FB023188A3B1
:108E4000D3E90023FDF7ACF96FF44A7C00EB0C0387
:108E5000BB42FFF47FAF1CF0A9FE4846636819F0DF
:108E6000F3FEE37D9907804640F1E581002800F09C
:108E7000E281824601271CF0EDFDCDE9027A09ABC3
:108E8000049305F11E0301932B7FC3F38013014666
:108E9000074600930022012320461BF057FE384668
:108EA0001CF056FD1CF09EFD002840F0CA81704861
:108EB00021461CF07FFC626892F8203043F00103E9
:108EC00082F82030A37D43F08003A3750FF0C2FB2E
:108ED000172202714FF6FF72C28095F81CC08246BD
:108EE0003B46CCF3401C00F11C0207F1200E1D682C
:108EF00058689968DF68D760103373451560506013
:108F0000916002F11002F2D11B6813609AF81C30D4
:108F1000CAF808406CF345138AF81C301CF07CFF3B
:108F2000002ECAF81000099BCAF8143008BF4FF091
:108F3000FF098AF81990E37D13F0020303D0B8F11A
:108F4000000318BF01239AF81A2063F300028AF87D
:108F50001A200FF07FFBCAF80C00DAF80000514627
:108F60000AB0BDE8F0470FF0A3BB5FFA8AF019F032
:108F7000F9FE814621E7A07D5FFA89F1C0F3C000C8
:108F800019F086FE814618E7012B40F089806A7F40
:108F90000C2A7FF4DFAE2A7FCDF80090194600231B
:108FA0000193D20905F1240320461BF009FD002896
:108FB0007FF42AAF2B7F03F00F03002B70D16B7F60
:108FC000052B7FF6C7AE252B3FF6C4AEA27D02F07F
:108FD0002102202A09D16268002A00F0C180052BF5
:108FE0007FF6B8AE252B3FF6B5AE63682BB12B7F6D
:108FF00003F00F03072B7FF4ADAE03209DF8238011
:109000000FF006FB054600283FF4A4AE0FF022FB4C
:109010004FF6FF73EB8005232B71002F3CD17F208F
:10902000AB7E2876002E08BF4FF0FF0968F341039E
:10903000286885F81990AB7629460FF039FB89E648
:109040000C4A0D490D4840F2C72324F0D8FD40409A
:1090500080F311884FF0030002DFA4E6AFF3008035
:1090600000CA9A3B00000000854704008D49FD1AA4
:109070007549040028820500B88105008871050043
:10908000B9F1FF0F8DF82490C2F380184BD0227EE7
:1090900091453FF4B2AE90E71CF0A2FDC0B2BFE72D
:1090A000062B8CD04521D94011F0010139D1012B7B
:1090B00010D16B7F0C2B7FF44DAE2A7FCDF8009042
:1090C0000DF123030193D20905F1240320461BF07F
:1090D00077FC08BB2B7F03F00F03042B7FF43AAE21
:1090E0006B7F063B1F2B3FF635AEA37DDB077FF57D
:1090F00031AE1CF0AFFC2B7F0278C3F38013B3EBCF
:10910000D21F7FF427AE0830062205F11E012CF095
:10911000DFF900287FF41EAE6B7F002B7FF465AF74
:1091200018E66B7F5BE705F11E0A09AA5146404627
:1091300019F0CEFE00283FF43DAFE37D03F00103BC
:1091400043457FF437AF5146062204F108002CF066
:10915000BFF900287FF42EAF2B7F03F00F034CE6FE
:10916000962007921CF0AAFD079A10461CF076FC88
:1091700003200FF04DFA804600283FF4EBAD0FF0CE
:1091800069FA4FF6FF73A8F80630052388F8043013
:10919000002F64D17F23002E88F8183014BF4B466F
:1091A000FF2388F8193098F81A30D8F800006FF3C8
:1091B000410388F81A3041460FF07AFA1CF04AFC55
:1091C00006460322337862F3030333702B7F327831
:1091D000C3F3801363F3C7120C23327048467370D5
:1091E00019F032FDE27D92073DD500283BD0317861
:1091F000324641F0400102F8021B0168C6F8021035
:1092000083889380D5F81E30B3606B8CB381304671
:109210001CF09EFB1CF0E6FB002835D11CF048FE3C
:10922000A37D204843F001032146A3750AB0BDE8A1
:10923000F0471CF0BFBAA77D04F1190AC7F38017E5
:1092400019E6194A19491A4840F2A44324F0D7FCF8
:10925000404080F311884FF0030002DF27E61CF046
:10926000BFFCC3B297E7A37D3278C3F3801363F3E7
:109270008612334603F8022BD4F81920C6F80220D0
:10928000B4F81D209A80BDE7074A084908484FF402
:10929000A56324F0B4FC404080F311884FF0030034
:1092A00002DFBBE79947040028820500C081050062
:1092B00088710500000000002DE9F041C468A28912
:1092C0004FF6FF739A4282B000F0C78005461BF04C
:1092D00041FD2B89628AE08A1A4492B21044637F6E
:1092E000A28280B2411CE1825E064FF000016182E1
:1092F00004F1180100F18C8003F03F000B46A17FC0
:10930000009004F11F0018F0E7FC0646D4E90B2397
:109310001344D4E90D0200210244E1626163A16AB1
:10932000A26394F872208B4228BF0B4612F004020D
:10933000236377D01CF080FA00201CF0A3FA201DD4
:109340001CF0BEFA2389A17A40F25B6043EA014136
:109350001CF066FB30461AF0A9FA214658481CF06A
:1093600029FA96201CF0AAFC94F85A2094F85B0085
:10937000C2F3C003002102F0070200F007001CF056
:10938000B5FB20461BF048FD27682E6838461AF0CA
:109390006DFA06446A6806F1090100201CF09AFC87
:1093A00080461CF059FD00201CF070FD236B94F8E2
:1093B0005B0003F13002A36B00F00700012103EB17
:1093C00042051CF0D3FA4544054494F85B0000F0D4
:1093D0000700022824D004280CBF4FF4BC732823B4
:1093E00001211D441CF0C4FA28441CF027FDA1896A
:1093F00005313246C9B238461AF046FA054698BBDE
:1094000020461AF0CDF9D0B9002002B0BDE8F081B5
:109410000A4603F03F03E18B18F0AAFC064675E705
:109420001823DDE7D4E917010CF07AFD002881D17B
:1094300094F8723043F0040384F872307AE7214ADA
:109440002149224840F2551324F0D9FB404080F3D3
:1094500011884FF0030002DFD6E71D4821461CF0BB
:10946000A9F91CF097FACFE7164A1A49174840F2B3
:109470004B1324F0C4FB184B0721A5FB030301FB8E
:1094800005310DA3D3E90023FCF78AFE13490246F8
:10949000134824F0B4FB404080F311884FF00300E0
:1094A00002DF104821461CF085F91CF073FA6FF0BA
:1094B0008B00AAE7AFF3008000CA9A3B00000000CF
:1094C00071500400F4820500F472050088710500F3
:1094D000113A0400087205008D49FD1A4883050001
:1094E000F0810500ED390400F0B5C468A2894FF69B
:1094F000FF739A4285B000F08B8005461BF02AFC72
:109500002B89628AE08A1A4492B21044637FA28255
:1095100080B2411CE1825E064FF00001618204F1DD
:1095200018015FD403F03F000B46A17F009004F1C7
:109530001F0018F0D1FB0646204603A91BF03AFD98
:10954000039B94F872101A7861F3C3021A70039A9D
:1095500094F872301178C3F3400363F38201117001
:109560001CF06AF900201CF08DF9201D1CF0A8F9F0
:109570002389A17A40F25B6043EA01411CF050FA72
:1095800030461AF093F9039920461BF0E7FC214678
:1095900037481CF00FF996201CF090FB94F85B0004
:1095A00000F007001CF05AFA27682E6838461AF0B7
:1095B0005DF906446A6806F1090101201CF08AFB86
:1095C0001CF076FCA18905313246C9B238461AF042
:1095D0005BF9054618BB20461AF0E2F850B90020A6
:1095E00005B0F0BD0A4603F03F03E18B18F0C0FB65
:1095F0000646A1E71F4A2049204840F2031324F001
:10960000FEFA404080F311884FF0030002DFE6E7E6
:109610001B4821461CF0CEF81CF0BCF9DFE7154AC8
:1096200018491648F92324F0EAFA174B0721A5FB3D
:10963000030301FB05310CA3D3E90023FCF7B0FDC4
:1096400012490246124824F0DAFA404080F31188A9
:109650004FF0030002DF0F4821461CF0ABF81CF06E
:1096600099F96FF08B00BBE700CA9A3B000000003D
:10967000A54E040054830500F472050088710500AE
:10968000113A0400087205008D49FD1AA4830500F3
:10969000F0810500ED3904002DE9F0472DED028B36
:1096A0009FED498B4A4E84B004464FF02003EFF300
:1096B000118783F31288BFF36F8FD4F8C8508DB928
:1096C000022104F1E0002BF05CF9002843D10023D3
:1096D0008DED008B029304F1D00239463D4822F013
:1096E000F1F8E2E7D4F8CC202B68C4F8C8309542F2
:1096F00008BFC4F8CC30D4F8E03043F00203C4F81B
:10970000E030EB6823F0040343F00103EB606B6887
:1097100087F31188BFF36F8F284698474FF02003D7
:10972000EFF3118983F31288BFF36F8FEB6899070A
:1097300023F0010219D4EA60D4F8E03023F00203E8
:10974000C4F8E03089F31188BFF36F8FDB05ACD428
:1097500021F098FFA9E704F1D8050022012128464D
:109760002BF015FB0028F8D1B1E7306823F0030394
:10977000EB600028E0D00027D0F80080BA4600282F
:10978000DAD04268954201460BD1016897B97268F8
:109790003160824200D1716040F808AB21F08EFB4D
:1097A0003946B8F1000F0BD0D8F8002040460F46DC
:1097B0009046E4E739607268824208BF7760EBE761
:1097C0004246F3E7AFF30080FFFFFFFFFFFFFFFF1D
:1097D000F87400205F770020F8B510EE904A34F05E
:1097E00000472DED048B10EE103AB0EE609A0DD1CB
:1097F00083F480035B0013F5000F40F2098230EE22
:10980000098AB0EE480ABDEC048BF8BD23F0004095
:10981000B0F1FF4F02D8B7F1FF4F08D9B3F17E5F27
:10982000EDD184F48004640014F5000FE5E7002B0B
:1098300001462DDAB7F1974F0CD3B7F1FF4F2AD07D
:109840000225B4F17C5F41D1002BC0F28F80B1EED4
:10985000C08AD6E7B7F17E5F31D3FA15C2F196021E
:1098600047FA02F505FA02F2BA423DD1B7F17E5F3E
:109870004AD1002C80F2D281B5EE400AF1EE10FA06
:1098800050D1D80FBDEC048BBDE8F84022F0A2BE49
:10989000B7F1FF4F3DD1B0F17E5F00F0B98108D93B
:1098A000DFED977A002CB4BFB0EE678AB0EE498A3C
:1098B000A7E7002C80F2AF81B1EE498AA1E7B4F1AD
:1098C000804F34D0B4F17C5F5CD0002523F040425F
:1098D000B2F17E5FB0EEC08A3FD1002CBCBFB7EEC4
:1098E000007A87EE088A29E0B7F17E5FC1D00025B3
:1098F000B4F1804FEAD1B0F1BF4F1AD2B0F1D05FCE
:1099000029D920EE008A7CE705F00105C5F10205A2
:10991000EEE7B7F17E5FACD0B4F1804F4FF00005B9
:10992000E9D08EE7B7EE007A87EE008A69E7002576
:10993000E1E7B0F1FF4FB0EEC08A35D1002BBFF6A2
:1099400060AFA0F17E50284316D1BDEC048BBDE87A
:10995000F84022F04DBEB0EEC08A28BB002C1EDAC3
:10996000002B8FDA6B1E584258418BE7B0F1FF4F46
:10997000B0EEC08A40F05581012D7FF442AFB1EEC8
:10998000488A3EE7B0F1FF4FB0EEC08A3FF439AFEE
:10999000B0F17E5FD9D000283FF433AFD5E7012D79
:1099A00008BFB0EE408A2CE7DE0F013E55EA060202
:1099B000CBD0B7F19A4F40F24081524B984208D831
:1099C000002C0BDA0020BDEC048BBDE8F84022F03F
:1099D000F3BD4D4B984208D9002CF3DC0020BDECC0
:1099E000048BBDE8F84022F0D9BDB7EE007A38EE1E
:1099F000478ADFED467ADFED469A3FA1D1E90001C3
:109A000068EE278AFCF77CFB07EE900AB5EE007A39
:109A100048EE477AB6EE007A07EEC87A68EE087A22
:109A2000DFED3C6A27EE277AF0EE687A47EE667A39
:109A300068EE299A39EEA77A17EE103A23F47F637D
:109A400023F00F0307EE103A77EE699A77EEE97A82
:109A5000013D24F47F643543B7EE007A24F00F040F
:109A6000BFEE008A18BFB0EE478A07EE104A67EED5
:109A7000890A39EE477A07EE903A47EE270A07EE51
:109A8000104A67EE877A30EEA77A17EE101A00298F
:109A900021F000431ADDB3F1864F09D9B5EEC08A33
:109AA000F1EE10FA4CBF012000208CE70120E5E028
:109AB00036D1DFED196A37EE677A70EEA66AF4EEFA
:109AC000C76AF1EE10FAE9DC86232DE0134A9342CF
:109AD00007D9B5EEC08AF1EE10FA4CBF0120002084
:109AE0007DE71DD137EE677AB4EEE07AF1EE10FA39
:109AF000EADBEEE7AFF30080E13D55555555D53F24
:109B000000000000F3FF7F3F0700803F70A5EC36A8
:109B100000AAB83F3BAAB83F3CAA3833000016431E
:109B2000B3F17C5F6FD9DB157E3B4FF40000184129
:109B30000844C0F3C753A04A7F3B1A41024007EED6
:109B4000102AC0F3160040F40000C3F117031841B7
:109B5000002977EEC77AB8BF404237EEA07ADFED32
:109B6000976ADFED975A9FED976A17EE103A23F444
:109B70007F6323F00F0307EE103A77EE677A67EE04
:109B8000266A70EEE70ADFED907A67EE277A9FED9E
:109B90008F7A40EE877AB7EE000A36EEA77A77EE34
:109BA000666A77EEE67A67EE076A47EE277A16EE80
:109BB000A56ADFED875A46EE265A9FED866A15EEB6
:109BC000A66ADFED855A46EE265AB0EE476A05EEE4
:109BD000E66AF0EE006A67EE065A36EE666AC5EE91
:109BE000866A76EEE77A77EEC77A30EE670A10EE8D
:109BF000103A03EBC053B3F5000F06DA22F088FCED
:109C000020EE088AFDE50020A7E700EE103AF7E70E
:109C1000B7EE008AF5E59FED718AF2E5B0EE408A75
:109C2000EFE5B0F17E5F3FF48CAE00283FF4B7AEB5
:109C3000002D3FF48AAE0225002613F0FF4F08BF27
:109C40009FED677A674802BF68EE077A6FF01703E7
:109C500017EE901A4FEAE15218BF00237F3A1A44D8
:109C6000C1F31603834243F07E5106DD5E48834212
:109C70007FF71CAF0132A1F5000100205B4B03EB25
:109C80008003D3ED005A5A4B06EE101A75EE867A11
:109C9000F7EE006AC6EEA74A491041F0005101F5FF
:109CA000802101EB405136EE657A07EE901A27EEDF
:109CB000245A15EE107A1F4006EE907A06EEE77AE7
:109CC00077EEE57ADFED4B5A36EE676A65EE057A98
:109CD00006EE667A9FED486A47EE865A9FED476A20
:109CE00005EEA76ADFED465A46EE275A9FED456A14
:109CF00005EEA76ADFED445A46EE275A27EE247A8E
:109D000036EE856A67EEA77A26EE076A05EEA76A41
:109D100066EEA64AF0EE085A74EEA57A77EE867AD9
:109D200017EE901A194007EE901A77EEE55A27EED3
:109D3000277A75EEE45A66EEA76A36EE656A06EE95
:109D4000057A9FED326A76EE877A17EE901A1940FF
:109D500007EE901A77EEE66A27EE866A37EE667AA5
:109D6000DFED2B6A2B4967EEA67ADFED2B6A47EE13
:109D7000267A01EB800191ED007A77EE877A07EE83
:109D8000102A264A02EB8002D2ED005A76EE276AAC
:109D9000B8EEC77A76EEA56A76EE876A16EE902A56
:109DA000134006EE903A36EEC77A37EE657A37EE14
:109DB000467A77EEC77A4BE6000080FF0072313FAB
:109DC0004CBB31330EEADD358CBEBF351872313FE6
:109DD00055B38A38610B363BABAA2A3E000000001F
:109DE0000000804B71C41C00D6B35D00988605004E
:109DF00000F0FFFF55326C3E42F1533E05A38B3E0F
:109E0000ABAAAA3EB76DDB3E9A99193F0038763F60
:109E1000A0C39D36888605004F38763F90860500A2
:109E2000014821F04DB900BFC8020020014821F0CF
:109E300047B900BFB802002007B52AF0E5FF4FF48C
:109E40007A72A0FB020302FB0131C00B074A40EA11
:109E50004140106000234FF400420548CDE9002343
:109E600021F00EFF002003B05DF804FB903A0020C3
:109E700068110020014B187800F052BA0A760020D1
:109E8000044B1A78824202D01870FFF7F3BF00200B
:109E9000704700BF0A76002008B52AF0B5FF4FF4DE
:109EA0007A72A0FB020302FB0131084AC30B12685D
:109EB00043EA41439B1A47F23052934204DDBDE826
:109EC00008400120FFF7DCBF08BD00BF903A00202A
:109ED00008B52AF099FF4FF47A72A0FB020302FB47
:109EE0000131C00B044A40EA41401060BDE808401F
:109EF0000020FFF7C5BF00BF903A0020014B187843
:109F0000704700BF0A760020F8B5044610B9002556
:109F10002846F8BD0378002BF9D00F4E0F4FBE42F4
:109F20000FD30D4EBE42F2D230682AF07DFB30B125
:109F3000356821462868FCF79DFA0028E8D00436E9
:109F4000F0E730682AF070FB18B135682B68A3423F
:109F5000DED00436E3E700BFDCA8050030A9050029
:109F600070B5194C194D8CB00022002303A920466E
:109F700020F060FE08B10CB070BD2B68059E5868DB
:109F8000DDE9031222F05BFC0028EDDBFF238DF8F6
:109F90001830B6FA86F35B0907908DF820302AF066
:109FA00033FF4FF47A72A0FB020302FB0131C00BB6
:109FB00040EA4140C90B8DE8030006ABCDE90A0138
:109FC0000FCB00F0C7F9CFE7D0120020543B0020A0
:109FD0001FB50A4C2468A46884420DD183F00103A4
:109FE000CDE90112039306480022002301A920F0C5
:109FF000CBFD044821F064F804B010BD543B0020B0
:10A00000D0120020443B00201FB50023CDE90233CD
:10A01000044B8DF80C0001A8019322F037FC05B029
:10A020005DF804FBB05E05000268034B9A420CBF6A
:10A0300008300020704700BFB05E0500014B036090
:10A040002C207047943A0020044B1A68044B9A4223
:10A0500014BF6FF012000020704700BF543B002077
:10A060009C5E050038B5044628B3144D2B68834226
:10A070001FD02BB1986818B183685B6803B198470B
:10A080000F49104B8C4214BFED2100212C220020DF
:10A0900022F0EFFB00280DDBA0682C6048B183683C
:10A0A00009491B6898472B68986883689B6803B1C7
:10A0B0009847002038BD6FF01200FBE7543B0020AA
:10A0C0009C5E0500943A0020D19F020038B50546F9
:10A0D00048B90648FFF7C6FF041E02DB2846FFF713
:10A0E00093FF204638BD6FF01504FAE79C5E05002B
:10A0F000F7B50C4615460D4901AA1E4624F0DDF8B9
:10A1000068B1019B6BB9012C0DD1094F224639462C
:10A110003046A847002802DD3878FFF7D7FF03B0A4
:10A12000F0BD0020FBE76FF01500F8E7CC860500D6
:10A13000E41000200148FFF795BF00BF9C5E0500BA
:10A1400008B5074907482AF08FFC074A002342F860
:10A15000043B01332C2BFAD1BDE80840FFF7EABFDE
:10A16000619F0200443B0020943A0020F8B50F4D57
:10A170000F4E761B07460C4605EBC105C6F3C70616
:10A18000A64201DC00200CE02A683B689A4209D113
:10A190003C716B6838461B68984718B1431E012B09
:10A1A000F0D9F8BD01340835EAE700BF7C9205001C
:10A1B000BC92050000B58BB0064B074A28216846C3
:10A1C00021F036FE05490122684603F049FB0BB039
:10A1D0005DF804FB148705001E8705000B76002040
:10A1E0002DE9F8434768044600254FF001087B68D5
:10A1F000AB420DD8214922482AF07AFCA3681B689B
:10A200000BB120469847398939BB0020BDE8F88357
:10A210003A6802EBC50352F835001979DB88D0F8AB
:10A2200010C0D0F80890DCF80060DA0754BF43F49F
:10A23000B01383F4D01323F4801208FA01FEDB0775
:10A240004CBF46EA0E0626EA0E06CCF80060D9F8A6
:10A250000030984770B90135C9E740F2E7304FF454
:10A260007A72002300EBC1300021FBF799FF21F047
:10A270008BFACAE76FF00400C8E700BFB5A102007F
:10A280002016002008B5074B5A784AB901221A70E7
:10A2900005480022002320F07BFF044822F00CFB3D
:10A2A000002008BD0B760020201600208C590500E8
:10A2B00008B54FF4F0120023024820F09DFF00EA99
:10A2C000E07008BD20160020F7B50C46164611496F
:10A2D00001AA1F4623F0F1FFB0B1019BA3B9012CE5
:10A2E00015D10D4D224629463846B047002806DBD9
:10A2F0002B780A486C7023B122F0DEFA002003B0FC
:10A30000F0BD22F0F5FAF9E76FF00100F7E76FF022
:10A310001500F4E7148705000B7600208C59050022
:10A320001FB50023CDE90233044B8DF80C0001A8C2
:10A33000019322F0ABFA05B05DF804FBD45E050092
:10A340000268034B9A420CBF08300020704700BFE0
:10A35000D45E050084B030B589B00CAC84E80F0041
:10A36000002301930CAD084B00930FCD02AC0FC43A
:10A3700095E8030084E80300684622F087FA09B0F4
:10A38000BDE8304004B07047D85E05000268034B5A
:10A390009A420CBF08300020704700BFD85E05000D
:10A3A0001FB50023CDE90233044B8DF80C0001A842
:10A3B000019322F06BFA05B05DF804FBE05E050046
:10A3C00082B038B504A981E80C000546114820F098
:10A3D00097F90446A0B16B68012B0CD0022B05D075
:10A3E000A3B9BDE8384002B022F0B1BA22F0B6FA03
:10A3F00000282046F5DCBDE8384002B022F0A0BAC3
:10A400006FF00400BDE8384002B070476FF085007F
:10A41000F8E700BF1487050082B010B502A981E8F3
:10A420000C0004460B4820F06BF978B16368022BEE
:10A4300004D00020BDE8104002B0704722F08EFA30
:10A440000028CCBF002001206060F2E76FF004001C
:10A45000F0E700BF1487050002460249024822F0D7
:10A46000D5BA00BF883B00203C5F05000246024988
:10A47000024822F0CBBA00BF703B00202C5F0500E1
:10A4800002460249024822F0C1BA00BF583B0020F0
:10A490001C5F05000D4A52F82030013342F820308D
:10A4A0000B4A0123117883400B430A490978DBB238
:10A4B000137023EA01030849084A097850780B43CE
:10A4C000181A537018BF0120704700BFB43B00201A
:10A4D000107600200E7600200F760020FC10002061
:10A4E00010B5114A52F82030002B19DD013B42F81B
:10A4F00020300E4A2BB913780121814023EA010351
:10A5000013700B480B4B047810780B4A597812786B
:10A5100020EA040010435870401A18BF012010BDF3
:10A520006FF01500FBE700BFB43B00201076002061
:10A530000E760020FC1000200F760020044A012334
:10A5400012788340D8B213401B1A584258417047C2
:10A550001076002010B5084B084A1870084B517847
:10A560001C78084B1B7823EA040318435070401AE8
:10A5700018BF012010BD00BF0F760020FC10002086
:10A580000E76002010760020074B00221A70074B31
:10A59000074A1978074B50781B7823EA0103181AE9
:10A5A000537018BF012070470F7600200E760020F0
:10A5B000FC10002010760020A0F1E003072B03D848
:10A5C0002030C0B2FFF766BF064B062213F8011F0A
:10A5D00019B1013AFAD10020704718700028F8D05C
:10A5E000F9E700BFFE100020A0F1E003072B10B434
:10A5F00005D820305DF8044BC0B2FFF771BF0023CF
:10A60000064A194612F8014F0133A04208BF1170E3
:10A61000062BF7D100205DF8044B7047FE10002098
:10A62000A0F1E003072B03D82030C0B2FFF786BFAC
:10A63000064A002312F8011F884204D00133062B7A
:10A64000F8D1002070470120704700BFFE100020A5
:10A65000024B00221A605A60704700BFFD100020B4
:10A66000B0F5805F10B510D20949002301EB430219
:10A67000B2F8014024B10133062BF7D1002010BD00
:10A68000A2F801000028F6D0F8E76FF08500F6E7A1
:10A69000EF10002030B50023074C194604EB4302AD
:10A6A0000133B2F80150854204BF51709170062BFE
:10A6B000F4D1002030BD00BFEF100020024B00227B
:10A6C0001A605A609A607047F0100020074A002311
:10A6D00002EB4301B1F80110814204D00133062B93
:10A6E000F6D1002070470120704700BFEF10002016
:10A6F000042810D8094A52F82030013342F820309B
:10A70000074A0123117883400B43DBB21370054ADB
:10A710000020537070476FF015007047A03B002079
:10A720000D760020E5100020042814D80B4A52F8BA
:10A730002030002B0FDD013B42F82030084A2BB9B6
:10A7400013780121814023EA01031370054B12782D
:10A750005A70002070476FF015007047A03B002032
:10A760000D760020E5100020014B5880998070473D
:10A77000E5100020014B1881D9807047E5100020BA
:10A78000024B00221A605A601A727047E6100020CD
:10A7900000487047FC10002000487047EF10002070
:10A7A00000487047E510002070B50D6804460E465D
:10A7B00028462349FBF75EFE10B92072012070BDC8
:10A7C00020492846FBF756FE10B901232372F5E70E
:10A7D0001D492846FBF74EFE08B90223F6E71B4940
:10A7E0002846FBF747FE10B973686360E6E718492F
:10A7F0002846FBF73FFE10B973682360DEE7154972
:10A800002846FBF737FE10B90123A373D6E7124998
:10A810002846FBF72FFE10B90123E373CEE70F495B
:10A820002846FBF727FE08B90223EEE70C49284625
:10A83000FBF720FE08B90223EFE70020BFE700BFC7
:10A84000BE870500C8870500D4870500E28705009C
:10A85000F18705000188050012880500238805009E
:10A86000348805002DE9F843D0F804800769D8F84A
:10A870000830DFF848903B6100247B81BC8108F1FF
:10A880000C06D8F80830A34211D931463846FFF7F4
:10A890008BFF651C70B930684946FBF7EBFD48B982
:10A8A000ADB27D81D8F808303C615B1BBB810020D4
:10A8B000BDE8F8832C460C36E3E700BF4588050069
:10A8C00008B503460069034903632AF011F9002023
:10A8D00008BD00BFA9A90200F8B52DED028B0C46FA
:10A8E000B1F90410054631B99FED2D0A84ED000A37
:10A8F000BDEC028BF8BDD4E9027657EA06004CD0D5
:10A90000A888C01946F10006121A63EB0603012A53
:10A9100073F1000041DB4FF47A7607EE901AA2FB48
:10A92000062106FB0311E888D30B43EA4143984212
:10A930004FEAE1314FF000028A41B8EEE78A14DBBA
:10A9400098B16A7A8AB107EE100A07EE903AB8EE2B
:10A95000C70AF8EEE77A07EE102A87EE800AF8EECB
:10A96000470AFEF739FF28EE008A2B7ADFED0D6AE1
:10A9700007EE103AB8EEC77A27EE087AC7EE267AC5
:10A9800094ED007A77EE877ABDEEE70AB8EEC00A5A
:10A9900077EEC07AC4ED007AAAE7DFED017AEFE73F
:10A9A0000000000000007A442DE9F0412DED028BFB
:10A9B000076B84B07E6804462AF026FA0D460246EC
:10A9C0000B46804604F138013046FFF785FF2B46E1
:10A9D000424604F148013046F0EE408AFFF77CFF22
:10A9E000FDEEE87AB0EE408A17EE903AFDEEC07ABE
:10A9F0001BB217EE902A15B2EBB1DFED2F7A328839
:10AA0000F4EEE78AF1EE10FA4CD9DFED2C7AF4EE91
:10AA1000E78AF1EE10FA47F6FF7158BF0B460020A7
:10AA20000021CDE90201B5FA85F1490900913846C6
:10AA300002211BF095FDDDB1DFED1F7A7288B4EEC7
:10AA4000E78AF1EE10FA2FD9DFED1C7AB4EEE78A2F
:10AA5000F1EE10FA47F6FF7348BF2B4600200021A5
:10AA6000CDE9020101210091384602211BF078FD59
:10AA7000B4F93C3013B9B4F94C30BBB1307AC003EF
:10AA80004FF47A72002300F2E7300021FBF788FBD5
:10AA900002460B46204604B0BDEC028BBDE8F041F7
:10AAA00020F076BB064BBAE7054BD7E704B0BDEC08
:10AAB000028BBDE8F08100BF000000C700FEFF462A
:10AAC0000080FFFF30B593B0182200210CA82AF0B7
:10AAD00060FB254D06AC00220CA90023284620F07F
:10AAE000A9F8014600283DD1182220462AF051FB42
:10AAF0000C9B07932AF088F94FF47A72A0FB0203AB
:10AB000002FB01319DF834308DF82830C00B9DF8E0
:10AB1000443040EA4140C90B13F00102CDE908017D
:10AB200018BF0122049208AB0FCB8DE80F000EA8CE
:10AB300094E80C0021F001FE119B012BCBD9C3F34B
:10AB40005E044FF4004540F2E73000214FF47A7282
:10AB50000023E5FB0401FBF723FB02460B460348F9
:10AB600020F016FB13B030BD0013002000000020C1
:10AB700030B58BB001AC84E80E0042680492027CD0
:10AB80008DF8142094E8070006AD85E80B000F9AB5
:10AB90009DF8383043EA4203099309480022002314
:10ABA00004A91FF0F1FF002804DB064829F0ACFFE0
:10ABB00010B100200BB030BD0248FFF783FFF8E76B
:10ABC000001300200000002070B500250646056037
:10ABD00000F058FB044678B101F0CCFA30B900F02F
:10ABE00049FC012370603370304670BD064B1B7802
:10ABF000012BF4D02846F5E701F0BCFA0028EED08E
:10AC000023462046EEE700BF1176002008B5094B29
:10AC10001B7823B1012B06D06FF0850008BDBDE87D
:10AC2000084022F035BCFFF7B3FDBDE80840013015
:10AC300000F092BD9C3C002008B5094B1B7823B165
:10AC4000012B06D06FF0850008BDBDE8084022F05A
:10AC500027BCFFF7A1FDBDE80840013000F0A2BD10
:10AC60009C3C002037B508490848094D6C4629F03E
:10AC70003FFF2046FFF7A8FF94E8030085E80300A4
:10AC8000002003B030BD00BF95AC020000170020CB
:10AC90009C3C002002490348012202F0E1BD00BFB4
:10ACA000117600200489050082B00DF1080C0CE932
:10ACB000030019469DF8003010461BB1012B05D04A
:10ACC000054A00E0054A02B021F0B2B8019B044AEF
:10ACD00002B021F0ADB800BF238905001889050036
:10ACE0001C89050008B5094B1B7823B1012B06D040
:10ACF0006FF0850008BDBDE8084022F0D9BBFFF722
:10AD00004FFDBDE80840013000F074BD9C3C0020C0
:10AD100030B589B001AD0F4C2846FFF755FF94E8D8
:10AD20000C0095E8030022F060F980B922F084F964
:10AD300095E803000A2305AA84E80300FFF7B4FF9F
:10AD400094E8030003AB83E8030000F041F809B086
:10AD500030BD00BF9C3C002008B5074B1A788242EA
:10AD600008D018704FF4F0120023044820F044FA81
:10AD7000FFF7CEFF002008BD11760020001700204D
:10AD8000034B1878B0FA80F04009FFF7E5BF00BF29
:10AD90001176002070B50C4615460B4900221E4660
:10ADA00023F08BFA08B9002070BD012C08D10749A7
:10ADB00022463046A8470028F6DDFFF7A9FFF2E754
:10ADC0006FF01500F0E700BF0E8905001176002036
:10ADD0007FB56B4683E8030093E80300002206ABCF
:10ADE00003E90300039202A8034A029221F04EFDF8
:10ADF00007B05DF804FB00BFF85F050003281FB52E
:10AE000030D830BB11B9002004B010BD174B1A6800
:10AE1000012383401343154C9A422360F3D08DF8ED
:10AE200000008DF8011029F0EFFF4FF47A72A0FBBB
:10AE3000020302FB0131C00B40EA4140C90BCDE9DE
:10AE4000020104AB13E90F0004B0BDE8104000F0AC
:10AE500065B8064B1A680029DAD10123834022EA3B
:10AE60000303D8E76FF01500CEE700BF543D002084
:10AE7000014B196822F03DB9543D00202B2937B50C
:10AE800004460D4602D9002003B030BD0328FAD88D
:10AE900001A8FFF7D3F80028F5DB8542F3DA019B20
:10AEA00053F825302B2BEED84FF4047202FB04F03C
:10AEB0000C2202FB0300014B1844E5E70460050087
:10AEC0002DE9F74FDDE90CABDFF84C9007460C4657
:10AED00015461AB10F4B1B6849F8213003265FFA5B
:10AEE00086F859F82410404622F003F930B9013EA3
:10AEF000F5D26FF0850003B0BDE8F08FCDE900AB6F
:10AF00002B4622464146384622F003F90028F2DD5E
:10AF1000EDE700BF543D0020A43C002010B58AB0EE
:10AF20006C4684E80F0000230593064B049394E8D5
:10AF30000F000AAC04E90F0004A821F0A7FC0AB036
:10AF400010BD00BF4468050084B030B589B00CACBA
:10AF500084E80F00002301930CAD084B00930FCD44
:10AF600002AC0FC495E8030084E80300684621F0B2
:10AF70008DFC09B0BDE8304004B070474C68050056
:10AF80000268034B9A420CBF08300020704700BF94
:10AF90004C6805007FB56B4683E8030093E8030027
:10AFA000002206AB03E90300039202A8034A0292BF
:10AFB00021F06CFC07B05DF804FB00BF5068050091
:10AFC000074B1A78074B82B0162102FB013301931D
:10AFD0008DF8002002AB13E9030002B0FFF7DABFDF
:10AFE000197600201A76002002490348012202F057
:10AFF00037BC00BF19760020CA89050008B50020BB
:10B0000004F06EFE002802DA10F1780F07D1044830
:10B0100002F0B6FC0348044929F06AFD002008BD8F
:10B02000EC04002030170020E9AF020070B503786F
:10B030008AB004460E4607AD032B20D8DFE803F0A4
:10B0400002191B1D11492846FBF71EFA0595637866
:10B050000493A3780393E3780293237901936379AC
:10B060000093A3790A4A1E21304620F0E1FE0AB07F
:10B0700070BD0849E7E70849E5E70849E3E7084AFA
:10B080000A21284620F0D4FEE0E700BFDD89050054
:10B09000068A0500E4890500EB890500F5890500AD
:10B0A000FF89050010B592B0044625F020FD01A9E6
:10B0B000FFF7BCFF09A9204606F0CAFC9DF8253021
:10B0C000012B13D10A481FF0FBFF204625F00FFD8E
:10B0D000084B19780F22162313FB01230649194444
:10B0E00022F082F810B905481FF0EAFF12B010BD37
:10B0F00004050020197600201A760020140500208F
:10B100002DE9F0418AB00D46164628496A460446A4
:10B110001F4623F0D2F8F8B10098E8B10A2201A93D
:10B1200020F04AFF019B1B7803BB162D1ED1C4B231
:10B13000042C1BD8DFF888806C432A4608EB0401F6
:10B140003846B047002813DD04F10F0002A940443F
:10B15000FFF76CFF00200BE015496A46204623F0FC
:10B16000ACF878B1009B6BB9012D04D06FF01500DD
:10B170000AB0BDE8F0810F492A463846B04700EAD8
:10B18000E070F5E70C496A46204623F096F800285F
:10B19000E0D000980028DDD0072DE7D12AF094F9FF
:10B1A0000028D7D105492A46E7E700BF298A0500CC
:10B1B000CE89050019760020328A0500127600201B
:10B1C0001A76002008B5074B074819780F22162376
:10B1D00013FB01231844054922F006F8B0FA80F069
:10B1E000400908BD197600201A760020288E050037
:10B1F0002DE9F0410C468EB005464FF0160806A921
:10B20000204615FB08F7FFF711FF0D4E216807F1E7
:10B210000F029319B150A2889A80A2799A710949B4
:10B220002A4601A820F030FE4246F11901A802F09A
:10B2300017FB05481FF044FF0EB0BDE8F08100BFCA
:10B240001A760020478A05001405002038B50F2320
:10B25000162414FB0034094B09491C4405462046BA
:10B2600021F0C2FF48B12146002004F01DFC284611
:10B270000349BDE83840FFF7BBBF38BD1A76002050
:10B28000288E050010B5124B12491A7816240F2388
:10B2900014FB0234104B1C448AB0204621F0A4FF5A
:10B2A00010B900200AB010BD2146002006F050FB66
:10B2B00004460028F5D001A906F0CAFB204625F077
:10B2C000F8FA9DF82400831E58425841EAE700BF6F
:10B2D00019760020288E05001A760020F0B58DB072
:10B2E000FFF770FF98B9FFF7CDFF80F001035B0017
:10B2F000DBB2214D2A7803EB0213112B09DC022B60
:10B300002DD0102B23D0002420460DB0F0BD0223F9
:10B31000EFE7202B1BD0122BF5D105F0CFFA00233D
:10B320002B7004460028EFD1144F0FCF02AE0FC68A
:10B330003B681349336003220094234602A805F0BA
:10B340008BFA04460028DFD102232B70DBE705F0DF
:10B35000B5FA00232B7004460028D4D0D4E7074E5A
:10B360000FCE07AC0FC43368236000230449009359
:10B37000032207A8E3E700BF88760020B05C050041
:10B380002405002030B593B0054625F0B0FB01A997
:10B390000446FFF74BFE09A9284606F059FB9DF825
:10B3A0002530012B05D1FFF70DFF214618B904F018
:10B3B0007BFB13B030BD034B1878FFF719FFFFF785
:10B3C0008DFFF6E71976002030B593B00D4609A938
:10B3D000044606F03DFB9DF82530012B0BD120469D
:10B3E00025F085FB01A9FFF721FE0E4B00221A7004
:10B3F0001DB1FFF773FF13B030BDFFF76FFF20469D
:10B4000025F075FB084B19780F22162313FB012337
:10B410000649194421F0E8FE0028ECD104481FF049
:10B420004FFEE8E788760020197600201A76002083
:10B430001405002008B5064806F064FA054806F031
:10B440005FFD054806F076FDFFF748FF002008BDC8
:10B45000CC040020B0040020A004002008B5044B58
:10B460001878FFF7F3FEBDE80840FFF737BF00BFCD
:10B4700019760020014B1878704700BF197600201C
:10B48000042808B510D80A4B1A7882420AD01870DE
:10B490004FF4F012002307481FF0AEFEFFF71EFF27
:10B4A000FFF78EFD002008BD6FF02100FBE700BF15
:10B4B0001976002030170020054B1878052301303D
:10B4C000B0FBF3F303EB8303C01AC0B2FFF7D8BF9E
:10B4D00019760020054B187805230430B0FBF3F3F0
:10B4E00003EB8303C01AC0B2FFF7CABF197600206E
:10B4F000042838B51DD80F23162414FB00340E4B36
:10B500000E491C44204621F06FFE18B96FF012045A
:10B51000204638BD2146002006F01AFA05460028CC
:10B52000F4D0132125F0E5FA0446284625F0C1F9A8
:10B53000EEE76FF02104EBE71A760020288E050075
:10B5400010B50A4B0A491A7816240F2314FB02344B
:10B55000084B1C44204621F047FE28B1214600201C
:10B56000BDE8104006F0F4B910BD00BF1976002008
:10B57000288E05001A76002070B5164D90B004464E
:10B580000146284621F030FEE8B108A92846FFF719
:10B590004DFD1149284621F027FE0646B0B96946FF
:10B5A0002046FFF743FD23682B60A388AB80A37977
:10B5B0000A49AB71324608A820F066FC07222146F2
:10B5C00008A802F04DF9002010B070BD6FF00B001C
:10B5D000FAE700BF12760020288E0500578A050082
:10B5E0001FB5B0240294044C0194BDF81840009497
:10B5F00026F0C3FD04B010BD8F8A050007B5064BC9
:10B6000000930649064805234FF440721FF05EFD83
:10B61000002003B05DF804FB6C6805006077002033
:10B6200060170020F0B5164E164F89B00022002397
:10B63000694630461FF0FEFA054608B109B0F0BD74
:10B64000FFF77EFF04460028F8D01822294602A8FA
:10B6500029F09FFD08230DEB030120460397CDF849
:10B6600010D0ADF8143008F0ADFB013003D1022149
:10B67000204625F0C2F9204625F01BF9D6E700BF89
:10B6800060130020D86805002DE9F041164FDFF85F
:10B690005C808AB001AE00220023314638461FF09C
:10B6A000C9FA054610B10AB0BDE8F081FFF748FFBE
:10B6B00004460028F7D01822294604A829F069FD7D
:10B6C0000C2304A92046CDE90586ADF81C3008F00E
:10B6D00079FB013003D10221204625F08EF9204666
:10B6E00025F0E7F8D7E700BF3013002028690500F0
:10B6F0002DE9F041164FDFF85C808AB001AE0022E0
:10B700000023314638461FF095FA054610B10AB0BD
:10B71000BDE8F081FFF714FF04460028F7D0182297
:10B72000294604A829F035FD092304A92046CDE9BE
:10B730000586ADF81C3008F045FB013003D102212D
:10B74000204625F05AF9204625F0B3F8D7E700BF88
:10B75000901300207869050037B5054640F6CD42C4
:10B76000014600230C481FF00FFA044678B110F18F
:10B770000B0F09D100220023694607481FF05AFA2F
:10B780002846FFF7E9FF0446204603B030BD0349D1
:10B79000034829F096F9F7E7601300205C050020C4
:10B7A0006017002030B5054685B040F6CD42014611
:10B7B00000230D481FF0E8F9044678B110F10B0F93
:10B7C00009D10022002301A907481FF033FA2846B7
:10B7D000FFF7E8FF0446204605B030BD03490448A2
:10B7E00029F06FF9F7E700BF301300204C05002067
:10B7F0006017002030B5054685B040F6CD420146C1
:10B8000000230D481FF0C0F9044678B110F10B0F6A
:10B8100009D10022002301A907481FF00BFA28468E
:10B82000FFF7E8FF0446204605B030BD0349044851
:10B8300029F047F9F7E700BF901300203C050020EE
:10B84000601700201FB50023CDE90233044B8DF8AB
:10B850000C0001A8019321F019F805B05DF804FB74
:10B86000F469050008B500F0F7FCBDE8084001499F
:10B8700029F027B98006002007B5084828F0D4FE33
:10B8800048B14FF4F0120023CDE900230448002210
:10B89000002320F0F5F903B05DF804FBC85905005A
:10B8A000A011002008B5FEF74BFD10B96FF0850020
:10B8B00008BDFEF723FB38B10138C0B20128F5D826
:10B8C000034829F0E8FA01E0FFF7D6FF0020EFE790
:10B8D000A011002037B50E4CA5682D21EB6820463D
:10B8E000984790B92D212B696A462046984760B940
:10B8F000084C00982378834207D0C0B2207001F032
:10B9000087FF10B92078FFF79DFF03B030BD00BF5F
:10B91000C85905008A76002008B5054828F084FE3D
:10B9200018B1FFF7A9FF002008BD6FF01200FBE778
:10B93000C859050013B50024084909480094052397
:10B940004FF400721FF0C2FB064805F0DBFF06480B
:10B9500002F016F8204602B010BD00BF607A002049
:10B9600048180020B80600209006002030B50C4B87
:10B97000187887B090B90B4A52686AB90A4D01220B
:10B980001A700FCD01AC0FC42B680849236001A8C1
:10B9900005F0F6F900EAE07007B030BD0020FBE7E3
:10B9A0008B760020583D0020C45C050085BF020056
:10B9B00008B5FEF739FB10B102481FF081FB0020EB
:10B9C00008BD00BFD806002084B010B588B00AAC0E
:10B9D00084E80F001348214640F6CD4200231FF0B3
:10B9E000D3F80446C0B110F10B0F0FD10022002391
:10B9F00002A90C481FF01EF9DDE90E010AAB009008
:10BA00008DF804100FCBFFF7DFFF0446204608B087
:10BA1000BDE8104004B070470349044829F051F8CC
:10BA2000F4E700BFC0130020A8060020481800203B
:10BA300070B503788AB004460E4607AD032B20D8B4
:10BA4000DFE803F002191B1D11492846FAF71CFD17
:10BA5000059563780493A3780393E378029323799D
:10BA6000019363790093A3790A4A1E21304620F09E
:10BA7000DFF90AB070BD0849E7E70849E5E708497A
:10BA8000E3E7084A0A21284620F0D2F9E0E700BFA0
:10BA9000DD890500068A0500E4890500EB890500BB
:10BAA000F5890500FF89050010B50F4C86B0FEF73B
:10BAB000CBFA2378022B15D1B4F882308DF8170019
:10BAC00083B1606824F0C0FF01280BD90023CDE9C1
:10BAD000013301230093B4F8821060680DF117025E
